{
  "address": "0x038ceb34fe309bcA14F92aaDe2E34a955b318f4C",
  "abi": [
    {
      "inputs": [
        {
          "internalType": "contract ISigsVerifier",
          "name": "_sigsVerifier",
          "type": "address"
        },
        {
          "internalType": "address",
          "name": "_liquidityBridge",
          "type": "address"
        },
        {
          "internalType": "address",
          "name": "_pegBridge",
          "type": "address"
        },
        {
          "internalType": "address",
          "name": "_pegVault",
          "type": "address"
        },
        {
          "internalType": "address",
          "name": "_pegBridgeV2",
          "type": "address"
        },
        {
          "internalType": "address",
          "name": "_pegVaultV2",
          "type": "address"
        }
      ],
      "stateMutability": "nonpayable",
      "type": "constructor"
    },
    {
      "anonymous": false,
      "inputs": [
        {
          "indexed": false,
          "internalType": "string",
          "name": "reason",
          "type": "string"
        }
      ],
      "name": "CallReverted",
      "type": "event"
    },
    {
      "anonymous": false,
      "inputs": [
        {
          "indexed": false,
          "internalType": "enum MsgDataTypes.MsgType",
          "name": "msgType",
          "type": "uint8"
        },
        {
          "indexed": false,
          "internalType": "bytes32",
          "name": "msgId",
          "type": "bytes32"
        },
        {
          "indexed": false,
          "internalType": "enum MsgDataTypes.TxStatus",
          "name": "status",
          "type": "uint8"
        },
        {
          "indexed": true,
          "internalType": "address",
          "name": "receiver",
          "type": "address"
        },
        {
          "indexed": false,
          "internalType": "uint64",
          "name": "srcChainId",
          "type": "uint64"
        },
        {
          "indexed": false,
          "internalType": "bytes32",
          "name": "srcTxHash",
          "type": "bytes32"
        }
      ],
      "name": "Executed",
      "type": "event"
    },
    {
      "anonymous": false,
      "inputs": [
        {
          "indexed": false,
          "internalType": "uint256",
          "name": "feeBase",
          "type": "uint256"
        }
      ],
      "name": "FeeBaseUpdated",
      "type": "event"
    },
    {
      "anonymous": false,
      "inputs": [
        {
          "indexed": false,
          "internalType": "uint256",
          "name": "feePerByte",
          "type": "uint256"
        }
      ],
      "name": "FeePerByteUpdated",
      "type": "event"
    },
    {
      "anonymous": false,
      "inputs": [
        {
          "indexed": false,
          "internalType": "address",
          "name": "receiver",
          "type": "address"
        },
        {
          "indexed": false,
          "internalType": "uint256",
          "name": "amount",
          "type": "uint256"
        }
      ],
      "name": "FeeWithdrawn",
      "type": "event"
    },
    {
      "anonymous": false,
      "inputs": [
        {
          "indexed": false,
          "internalType": "address",
          "name": "liquidityBridge",
          "type": "address"
        }
      ],
      "name": "LiquidityBridgeUpdated",
      "type": "event"
    },
    {
      "anonymous": false,
      "inputs": [
        {
          "indexed": true,
          "internalType": "address",
          "name": "sender",
          "type": "address"
        },
        {
          "indexed": false,
          "internalType": "address",
          "name": "receiver",
          "type": "address"
        },
        {
          "indexed": false,
          "internalType": "uint256",
          "name": "dstChainId",
          "type": "uint256"
        },
        {
          "indexed": false,
          "internalType": "bytes",
          "name": "message",
          "type": "bytes"
        },
        {
          "indexed": false,
          "internalType": "uint256",
          "name": "fee",
          "type": "uint256"
        }
      ],
      "name": "Message",
      "type": "event"
    },
    {
      "anonymous": false,
      "inputs": [
        {
          "indexed": true,
          "internalType": "address",
          "name": "sender",
          "type": "address"
        },
        {
          "indexed": false,
          "internalType": "bytes",
          "name": "receiver",
          "type": "bytes"
        },
        {
          "indexed": false,
          "internalType": "uint256",
          "name": "dstChainId",
          "type": "uint256"
        },
        {
          "indexed": false,
          "internalType": "bytes",
          "name": "message",
          "type": "bytes"
        },
        {
          "indexed": false,
          "internalType": "uint256",
          "name": "fee",
          "type": "uint256"
        }
      ],
      "name": "Message2",
      "type": "event"
    },
    {
      "anonymous": false,
      "inputs": [
        {
          "indexed": true,
          "internalType": "address",
          "name": "sender",
          "type": "address"
        },
        {
          "indexed": false,
          "internalType": "address",
          "name": "receiver",
          "type": "address"
        },
        {
          "indexed": false,
          "internalType": "uint256",
          "name": "dstChainId",
          "type": "uint256"
        },
        {
          "indexed": false,
          "internalType": "address",
          "name": "bridge",
          "type": "address"
        },
        {
          "indexed": false,
          "internalType": "bytes32",
          "name": "srcTransferId",
          "type": "bytes32"
        },
        {
          "indexed": false,
          "internalType": "bytes",
          "name": "message",
          "type": "bytes"
        },
        {
          "indexed": false,
          "internalType": "uint256",
          "name": "fee",
          "type": "uint256"
        }
      ],
      "name": "MessageWithTransfer",
      "type": "event"
    },
    {
      "anonymous": false,
      "inputs": [
        {
          "indexed": false,
          "internalType": "enum MsgDataTypes.MsgType",
          "name": "msgType",
          "type": "uint8"
        },
        {
          "indexed": false,
          "internalType": "bytes32",
          "name": "msgId",
          "type": "bytes32"
        },
        {
          "indexed": false,
          "internalType": "uint64",
          "name": "srcChainId",
          "type": "uint64"
        },
        {
          "indexed": false,
          "internalType": "bytes32",
          "name": "srcTxHash",
          "type": "bytes32"
        }
      ],
      "name": "NeedRetry",
      "type": "event"
    },
    {
      "anonymous": false,
      "inputs": [
        {
          "indexed": true,
          "internalType": "address",
          "name": "previousOwner",
          "type": "address"
        },
        {
          "indexed": true,
          "internalType": "address",
          "name": "newOwner",
          "type": "address"
        }
      ],
      "name": "OwnershipTransferred",
      "type": "event"
    },
    {
      "anonymous": false,
      "inputs": [
        {
          "indexed": false,
          "internalType": "address",
          "name": "pegBridge",
          "type": "address"
        }
      ],
      "name": "PegBridgeUpdated",
      "type": "event"
    },
    {
      "anonymous": false,
      "inputs": [
        {
          "indexed": false,
          "internalType": "address",
          "name": "pegBridgeV2",
          "type": "address"
        }
      ],
      "name": "PegBridgeV2Updated",
      "type": "event"
    },
    {
      "anonymous": false,
      "inputs": [
        {
          "indexed": false,
          "internalType": "address",
          "name": "pegVault",
          "type": "address"
        }
      ],
      "name": "PegVaultUpdated",
      "type": "event"
    },
    {
      "anonymous": false,
      "inputs": [
        {
          "indexed": false,
          "internalType": "address",
          "name": "pegVaultV2",
          "type": "address"
        }
      ],
      "name": "PegVaultV2Updated",
      "type": "event"
    },
    {
      "inputs": [
        {
          "internalType": "bytes",
          "name": "_message",
          "type": "bytes"
        }
      ],
      "name": "calcFee",
      "outputs": [
        {
          "internalType": "uint256",
          "name": "",
          "type": "uint256"
        }
      ],
      "stateMutability": "view",
      "type": "function"
    },
    {
      "inputs": [
        {
          "internalType": "bytes",
          "name": "_message",
          "type": "bytes"
        },
        {
          "components": [
            {
              "internalType": "address",
              "name": "sender",
              "type": "address"
            },
            {
              "internalType": "address",
              "name": "receiver",
              "type": "address"
            },
            {
              "internalType": "uint64",
              "name": "srcChainId",
              "type": "uint64"
            },
            {
              "internalType": "bytes32",
              "name": "srcTxHash",
              "type": "bytes32"
            }
          ],
          "internalType": "struct MsgDataTypes.RouteInfo",
          "name": "_route",
          "type": "tuple"
        },
        {
          "internalType": "bytes[]",
          "name": "_sigs",
          "type": "bytes[]"
        },
        {
          "internalType": "address[]",
          "name": "_signers",
          "type": "address[]"
        },
        {
          "internalType": "uint256[]",
          "name": "_powers",
          "type": "uint256[]"
        }
      ],
      "name": "executeMessage",
      "outputs": [],
      "stateMutability": "payable",
      "type": "function"
    },
    {
      "inputs": [
        {
          "internalType": "bytes",
          "name": "_message",
          "type": "bytes"
        },
        {
          "components": [
            {
              "internalType": "bytes",
              "name": "sender",
              "type": "bytes"
            },
            {
              "internalType": "address",
              "name": "receiver",
              "type": "address"
            },
            {
              "internalType": "uint64",
              "name": "srcChainId",
              "type": "uint64"
            },
            {
              "internalType": "bytes32",
              "name": "srcTxHash",
              "type": "bytes32"
            }
          ],
          "internalType": "struct MsgDataTypes.RouteInfo2",
          "name": "_route",
          "type": "tuple"
        },
        {
          "internalType": "bytes[]",
          "name": "_sigs",
          "type": "bytes[]"
        },
        {
          "internalType": "address[]",
          "name": "_signers",
          "type": "address[]"
        },
        {
          "internalType": "uint256[]",
          "name": "_powers",
          "type": "uint256[]"
        }
      ],
      "name": "executeMessage",
      "outputs": [],
      "stateMutability": "payable",
      "type": "function"
    },
    {
      "inputs": [
        {
          "internalType": "bytes",
          "name": "_message",
          "type": "bytes"
        },
        {
          "components": [
            {
              "internalType": "enum MsgDataTypes.TransferType",
              "name": "t",
              "type": "uint8"
            },
            {
              "internalType": "address",
              "name": "sender",
              "type": "address"
            },
            {
              "internalType": "address",
              "name": "receiver",
              "type": "address"
            },
            {
              "internalType": "address",
              "name": "token",
              "type": "address"
            },
            {
              "internalType": "uint256",
              "name": "amount",
              "type": "uint256"
            },
            {
              "internalType": "uint64",
              "name": "wdseq",
              "type": "uint64"
            },
            {
              "internalType": "uint64",
              "name": "srcChainId",
              "type": "uint64"
            },
            {
              "internalType": "bytes32",
              "name": "refId",
              "type": "bytes32"
            },
            {
              "internalType": "bytes32",
              "name": "srcTxHash",
              "type": "bytes32"
            }
          ],
          "internalType": "struct MsgDataTypes.TransferInfo",
          "name": "_transfer",
          "type": "tuple"
        },
        {
          "internalType": "bytes[]",
          "name": "_sigs",
          "type": "bytes[]"
        },
        {
          "internalType": "address[]",
          "name": "_signers",
          "type": "address[]"
        },
        {
          "internalType": "uint256[]",
          "name": "_powers",
          "type": "uint256[]"
        }
      ],
      "name": "executeMessageWithTransfer",
      "outputs": [],
      "stateMutability": "payable",
      "type": "function"
    },
    {
      "inputs": [
        {
          "internalType": "bytes",
          "name": "_message",
          "type": "bytes"
        },
        {
          "components": [
            {
              "internalType": "enum MsgDataTypes.TransferType",
              "name": "t",
              "type": "uint8"
            },
            {
              "internalType": "address",
              "name": "sender",
              "type": "address"
            },
            {
              "internalType": "address",
              "name": "receiver",
              "type": "address"
            },
            {
              "internalType": "address",
              "name": "token",
              "type": "address"
            },
            {
              "internalType": "uint256",
              "name": "amount",
              "type": "uint256"
            },
            {
              "internalType": "uint64",
              "name": "wdseq",
              "type": "uint64"
            },
            {
              "internalType": "uint64",
              "name": "srcChainId",
              "type": "uint64"
            },
            {
              "internalType": "bytes32",
              "name": "refId",
              "type": "bytes32"
            },
            {
              "internalType": "bytes32",
              "name": "srcTxHash",
              "type": "bytes32"
            }
          ],
          "internalType": "struct MsgDataTypes.TransferInfo",
          "name": "_transfer",
          "type": "tuple"
        },
        {
          "internalType": "bytes[]",
          "name": "_sigs",
          "type": "bytes[]"
        },
        {
          "internalType": "address[]",
          "name": "_signers",
          "type": "address[]"
        },
        {
          "internalType": "uint256[]",
          "name": "_powers",
          "type": "uint256[]"
        }
      ],
      "name": "executeMessageWithTransferRefund",
      "outputs": [],
      "stateMutability": "payable",
      "type": "function"
    },
    {
      "inputs": [
        {
          "internalType": "bytes32",
          "name": "",
          "type": "bytes32"
        }
      ],
      "name": "executedMessages",
      "outputs": [
        {
          "internalType": "enum MsgDataTypes.TxStatus",
          "name": "",
          "type": "uint8"
        }
      ],
      "stateMutability": "view",
      "type": "function"
    },
    {
      "inputs": [],
      "name": "feeBase",
      "outputs": [
        {
          "internalType": "uint256",
          "name": "",
          "type": "uint256"
        }
      ],
      "stateMutability": "view",
      "type": "function"
    },
    {
      "inputs": [],
      "name": "feePerByte",
      "outputs": [
        {
          "internalType": "uint256",
          "name": "",
          "type": "uint256"
        }
      ],
      "stateMutability": "view",
      "type": "function"
    },
    {
      "inputs": [
        {
          "internalType": "address",
          "name": "_liquidityBridge",
          "type": "address"
        },
        {
          "internalType": "address",
          "name": "_pegBridge",
          "type": "address"
        },
        {
          "internalType": "address",
          "name": "_pegVault",
          "type": "address"
        },
        {
          "internalType": "address",
          "name": "_pegBridgeV2",
          "type": "address"
        },
        {
          "internalType": "address",
          "name": "_pegVaultV2",
          "type": "address"
        }
      ],
      "name": "init",
      "outputs": [],
      "stateMutability": "nonpayable",
      "type": "function"
    },
    {
      "inputs": [],
      "name": "liquidityBridge",
      "outputs": [
        {
          "internalType": "address",
          "name": "",
          "type": "address"
        }
      ],
      "stateMutability": "view",
      "type": "function"
    },
    {
      "inputs": [],
      "name": "owner",
      "outputs": [
        {
          "internalType": "address",
          "name": "",
          "type": "address"
        }
      ],
      "stateMutability": "view",
      "type": "function"
    },
    {
      "inputs": [],
      "name": "pegBridge",
      "outputs": [
        {
          "internalType": "address",
          "name": "",
          "type": "address"
        }
      ],
      "stateMutability": "view",
      "type": "function"
    },
    {
      "inputs": [],
      "name": "pegBridgeV2",
      "outputs": [
        {
          "internalType": "address",
          "name": "",
          "type": "address"
        }
      ],
      "stateMutability": "view",
      "type": "function"
    },
    {
      "inputs": [],
      "name": "pegVault",
      "outputs": [
        {
          "internalType": "address",
          "name": "",
          "type": "address"
        }
      ],
      "stateMutability": "view",
      "type": "function"
    },
    {
      "inputs": [],
      "name": "pegVaultV2",
      "outputs": [
        {
          "internalType": "address",
          "name": "",
          "type": "address"
        }
      ],
      "stateMutability": "view",
      "type": "function"
    },
    {
      "inputs": [],
      "name": "preExecuteMessageGasUsage",
      "outputs": [
        {
          "internalType": "uint256",
          "name": "",
          "type": "uint256"
        }
      ],
      "stateMutability": "view",
      "type": "function"
    },
    {
      "inputs": [
        {
          "components": [
            {
              "internalType": "bytes",
              "name": "request",
              "type": "bytes"
            },
            {
              "internalType": "bytes[]",
              "name": "sigs",
              "type": "bytes[]"
            },
            {
              "internalType": "address[]",
              "name": "signers",
              "type": "address[]"
            },
            {
              "internalType": "uint256[]",
              "name": "powers",
              "type": "uint256[]"
            }
          ],
          "internalType": "struct MsgDataTypes.BridgeTransferParams",
          "name": "_tp",
          "type": "tuple"
        },
        {
          "components": [
            {
              "internalType": "bytes",
              "name": "message",
              "type": "bytes"
            },
            {
              "components": [
                {
                  "internalType": "enum MsgDataTypes.TransferType",
                  "name": "t",
                  "type": "uint8"
                },
                {
                  "internalType": "address",
                  "name": "sender",
                  "type": "address"
                },
                {
                  "internalType": "address",
                  "name": "receiver",
                  "type": "address"
                },
                {
                  "internalType": "address",
                  "name": "token",
                  "type": "address"
                },
                {
                  "internalType": "uint256",
                  "name": "amount",
                  "type": "uint256"
                },
                {
                  "internalType": "uint64",
                  "name": "wdseq",
                  "type": "uint64"
                },
                {
                  "internalType": "uint64",
                  "name": "srcChainId",
                  "type": "uint64"
                },
                {
                  "internalType": "bytes32",
                  "name": "refId",
                  "type": "bytes32"
                },
                {
                  "internalType": "bytes32",
                  "name": "srcTxHash",
                  "type": "bytes32"
                }
              ],
              "internalType": "struct MsgDataTypes.TransferInfo",
              "name": "transfer",
              "type": "tuple"
            },
            {
              "internalType": "bytes[]",
              "name": "sigs",
              "type": "bytes[]"
            },
            {
              "internalType": "address[]",
              "name": "signers",
              "type": "address[]"
            },
            {
              "internalType": "uint256[]",
              "name": "powers",
              "type": "uint256[]"
            }
          ],
          "internalType": "struct MsgDataTypes.MsgWithTransferExecutionParams",
          "name": "_mp",
          "type": "tuple"
        }
      ],
      "name": "refundAndExecuteMsg",
      "outputs": [],
      "stateMutability": "nonpayable",
      "type": "function"
    },
    {
      "inputs": [
        {
          "internalType": "bytes",
          "name": "_receiver",
          "type": "bytes"
        },
        {
          "internalType": "uint256",
          "name": "_dstChainId",
          "type": "uint256"
        },
        {
          "internalType": "bytes",
          "name": "_message",
          "type": "bytes"
        }
      ],
      "name": "sendMessage",
      "outputs": [],
      "stateMutability": "payable",
      "type": "function"
    },
    {
      "inputs": [
        {
          "internalType": "address",
          "name": "_receiver",
          "type": "address"
        },
        {
          "internalType": "uint256",
          "name": "_dstChainId",
          "type": "uint256"
        },
        {
          "internalType": "bytes",
          "name": "_message",
          "type": "bytes"
        }
      ],
      "name": "sendMessage",
      "outputs": [],
      "stateMutability": "payable",
      "type": "function"
    },
    {
      "inputs": [
        {
          "internalType": "address",
          "name": "_receiver",
          "type": "address"
        },
        {
          "internalType": "uint256",
          "name": "_dstChainId",
          "type": "uint256"
        },
        {
          "internalType": "address",
          "name": "_srcBridge",
          "type": "address"
        },
        {
          "internalType": "bytes32",
          "name": "_srcTransferId",
          "type": "bytes32"
        },
        {
          "internalType": "bytes",
          "name": "_message",
          "type": "bytes"
        }
      ],
      "name": "sendMessageWithTransfer",
      "outputs": [],
      "stateMutability": "payable",
      "type": "function"
    },
    {
      "inputs": [
        {
          "internalType": "uint256",
          "name": "_fee",
          "type": "uint256"
        }
      ],
      "name": "setFeeBase",
      "outputs": [],
      "stateMutability": "nonpayable",
      "type": "function"
    },
    {
      "inputs": [
        {
          "internalType": "uint256",
          "name": "_fee",
          "type": "uint256"
        }
      ],
      "name": "setFeePerByte",
      "outputs": [],
      "stateMutability": "nonpayable",
      "type": "function"
    },
    {
      "inputs": [
        {
          "internalType": "address",
          "name": "_addr",
          "type": "address"
        }
      ],
      "name": "setLiquidityBridge",
      "outputs": [],
      "stateMutability": "nonpayable",
      "type": "function"
    },
    {
      "inputs": [
        {
          "internalType": "address",
          "name": "_addr",
          "type": "address"
        }
      ],
      "name": "setPegBridge",
      "outputs": [],
      "stateMutability": "nonpayable",
      "type": "function"
    },
    {
      "inputs": [
        {
          "internalType": "address",
          "name": "_addr",
          "type": "address"
        }
      ],
      "name": "setPegBridgeV2",
      "outputs": [],
      "stateMutability": "nonpayable",
      "type": "function"
    },
    {
      "inputs": [
        {
          "internalType": "address",
          "name": "_addr",
          "type": "address"
        }
      ],
      "name": "setPegVault",
      "outputs": [],
      "stateMutability": "nonpayable",
      "type": "function"
    },
    {
      "inputs": [
        {
          "internalType": "address",
          "name": "_addr",
          "type": "address"
        }
      ],
      "name": "setPegVaultV2",
      "outputs": [],
      "stateMutability": "nonpayable",
      "type": "function"
    },
    {
      "inputs": [
        {
          "internalType": "uint256",
          "name": "_usage",
          "type": "uint256"
        }
      ],
      "name": "setPreExecuteMessageGasUsage",
      "outputs": [],
      "stateMutability": "nonpayable",
      "type": "function"
    },
    {
      "inputs": [],
      "name": "sigsVerifier",
      "outputs": [
        {
          "internalType": "contract ISigsVerifier",
          "name": "",
          "type": "address"
        }
      ],
      "stateMutability": "view",
      "type": "function"
    },
    {
      "inputs": [
        {
          "components": [
            {
              "internalType": "bytes",
              "name": "request",
              "type": "bytes"
            },
            {
              "internalType": "bytes[]",
              "name": "sigs",
              "type": "bytes[]"
            },
            {
              "internalType": "address[]",
              "name": "signers",
              "type": "address[]"
            },
            {
              "internalType": "uint256[]",
              "name": "powers",
              "type": "uint256[]"
            }
          ],
          "internalType": "struct MsgDataTypes.BridgeTransferParams",
          "name": "_tp",
          "type": "tuple"
        },
        {
          "components": [
            {
              "internalType": "bytes",
              "name": "message",
              "type": "bytes"
            },
            {
              "components": [
                {
                  "internalType": "enum MsgDataTypes.TransferType",
                  "name": "t",
                  "type": "uint8"
                },
                {
                  "internalType": "address",
                  "name": "sender",
                  "type": "address"
                },
                {
                  "internalType": "address",
                  "name": "receiver",
                  "type": "address"
                },
                {
                  "internalType": "address",
                  "name": "token",
                  "type": "address"
                },
                {
                  "internalType": "uint256",
                  "name": "amount",
                  "type": "uint256"
                },
                {
                  "internalType": "uint64",
                  "name": "wdseq",
                  "type": "uint64"
                },
                {
                  "internalType": "uint64",
                  "name": "srcChainId",
                  "type": "uint64"
                },
                {
                  "internalType": "bytes32",
                  "name": "refId",
                  "type": "bytes32"
                },
                {
                  "internalType": "bytes32",
                  "name": "srcTxHash",
                  "type": "bytes32"
                }
              ],
              "internalType": "struct MsgDataTypes.TransferInfo",
              "name": "transfer",
              "type": "tuple"
            },
            {
              "internalType": "bytes[]",
              "name": "sigs",
              "type": "bytes[]"
            },
            {
              "internalType": "address[]",
              "name": "signers",
              "type": "address[]"
            },
            {
              "internalType": "uint256[]",
              "name": "powers",
              "type": "uint256[]"
            }
          ],
          "internalType": "struct MsgDataTypes.MsgWithTransferExecutionParams",
          "name": "_mp",
          "type": "tuple"
        }
      ],
      "name": "transferAndExecuteMsg",
      "outputs": [],
      "stateMutability": "nonpayable",
      "type": "function"
    },
    {
      "inputs": [
        {
          "internalType": "address",
          "name": "newOwner",
          "type": "address"
        }
      ],
      "name": "transferOwnership",
      "outputs": [],
      "stateMutability": "nonpayable",
      "type": "function"
    },
    {
      "inputs": [
        {
          "internalType": "address",
          "name": "_account",
          "type": "address"
        },
        {
          "internalType": "uint256",
          "name": "_cumulativeFee",
          "type": "uint256"
        },
        {
          "internalType": "bytes[]",
          "name": "_sigs",
          "type": "bytes[]"
        },
        {
          "internalType": "address[]",
          "name": "_signers",
          "type": "address[]"
        },
        {
          "internalType": "uint256[]",
          "name": "_powers",
          "type": "uint256[]"
        }
      ],
      "name": "withdrawFee",
      "outputs": [],
      "stateMutability": "nonpayable",
      "type": "function"
    },
    {
      "inputs": [
        {
          "internalType": "address",
          "name": "",
          "type": "address"
        }
      ],
      "name": "withdrawnFees",
      "outputs": [
        {
          "internalType": "uint256",
          "name": "",
          "type": "uint256"
        }
      ],
      "stateMutability": "view",
      "type": "function"
    }
  ],
  "transactionHash": "0x1953d0bb58f67aa952a183eae2558d29e0e7fa8b588f4c36f8e9a22298f1c7fd",
  "args": [
    "0x5f196977F3b4ac218b8d03b3D6228b30Da6ceD31",
    "0x5f196977F3b4ac218b8d03b3D6228b30Da6ceD31",
    "0x2f0c4dF09Fac1aa410C94c4d97aF0186538057e3",
    "0x022b8945882Fc9326cb151AD2DEEebA8518f1593",
    "0x33C8F2c69DD303F7B11EEC9FA787A886138ea860",
    "0x82B9fE12f9CB4D27459D822d84566E3ec597Fb28"
  ],
  "numDeployments": 1,
  "solcInputHash": "599f975210cdab3113358d43cb6a3e35",
  "bytecode": "0x60a06040523480156200001157600080fd5b50604051620040303803806200403083398101604081905262000034916200011d565b84848484848a6200004533620000b4565b6001600160a01b03908116608052600580546001600160a01b0319908116978316979097179055600680548716958216959095179094556007805486169385169390931790925560088054851691841691909117905560098054909316911617905550620001b1945050505050565b600080546001600160a01b038381166001600160a01b0319831681178455604051919092169283917f8be0079c531659141344cd1fd0a4f28419497f9722a3daafe3b4186f6b6457e09190a35050565b6001600160a01b03811681146200011a57600080fd5b50565b60008060008060008060c087890312156200013757600080fd5b8651620001448162000104565b6020880151909650620001578162000104565b60408801519095506200016a8162000104565b60608801519094506200017d8162000104565b6080880151909350620001908162000104565b60a0880151909250620001a38162000104565b809150509295509295509295565b608051613e5c620001d4600039600081816104eb01526108430152613e5c6000f3fe6080604052600436106101fe5760003560e01c806382980dc41161011d578063ccf2683b116100b0578063dfa2dbaf1161007f578063f2fde38b11610064578063f2fde38b146105bd578063f60bbe2a146105dd578063f83b0fb9146105f357600080fd5b8063dfa2dbaf1461057d578063e2c1ed251461059d57600080fd5b8063ccf2683b146104d9578063cd2abd661461050d578063d8257d171461054a578063db2c20c81461056a57600080fd5b806395e911a8116100ec57806395e911a8146104705780639b05a775146104865780639f3ce55a146104a6578063c66a9c5a146104b957600080fd5b806382980dc4146103da57806382efd502146104125780638da5cb5b1461043257806395b12c271461045057600080fd5b8063468a2d04116101955780635b3e5f50116101645780635b3e5f5014610367578063723d0a9d146103945780637b80ab20146103b45780637d7a101d146103c757600080fd5b8063468a2d04146102eb5780635335dca2146102fe578063584e45e114610331578063588be02b1461034757600080fd5b80633f395aff116101d15780633f395aff1461028557806340d0d026146102985780634289fbb3146102b85780634586f331146102cb57600080fd5b806303cbfe661461020357806306c28bd6146102255780632ff4c41114610245578063359ef75b14610265575b600080fd5b34801561020f57600080fd5b5061022361021e366004612dcb565b610613565b005b34801561023157600080fd5b50610223610240366004612de8565b61070c565b34801561025157600080fd5b50610223610260366004612e4d565b610798565b34801561027157600080fd5b50610223610280366004612f03565b610a33565b610223610293366004612fb6565b610a4f565b3480156102a457600080fd5b506102236102b33660046130bf565b610d3f565b6102236102c636600461312b565b610d97565b3480156102d757600080fd5b506102236102e6366004612de8565b610e7f565b6102236102f93660046131a7565b610edb565b34801561030a57600080fd5b5061031e61031936600461326c565b610f3b565b6040519081526020015b60405180910390f35b34801561033d57600080fd5b5061031e600a5481565b34801561035357600080fd5b50610223610362366004612dcb565b610f61565b34801561037357600080fd5b5061031e610382366004612dcb565b60036020526000908152604090205481565b3480156103a057600080fd5b506102236103af3660046130bf565b61104e565b6102236103c2366004612fb6565b61109c565b6102236103d53660046132ae565b6112a9565b3480156103e657600080fd5b506005546103fa906001600160a01b031681565b6040516001600160a01b039091168152602001610328565b34801561041e57600080fd5b5061022361042d366004612dcb565b611306565b34801561043e57600080fd5b506000546001600160a01b03166103fa565b34801561045c57600080fd5b506008546103fa906001600160a01b031681565b34801561047c57600080fd5b5061031e60015481565b34801561049257600080fd5b506102236104a1366004612dcb565b6113f3565b6102236104b4366004613328565b6114e0565b3480156104c557600080fd5b506009546103fa906001600160a01b031681565b3480156104e557600080fd5b506103fa7f000000000000000000000000000000000000000000000000000000000000000081565b34801561051957600080fd5b5061053d610528366004612de8565b60046020526000908152604090205460ff1681565b60405161032891906133ae565b34801561055657600080fd5b506007546103fa906001600160a01b031681565b6102236105783660046133bc565b61153a565b34801561058957600080fd5b506006546103fa906001600160a01b031681565b3480156105a957600080fd5b506102236105b8366004612de8565b61158e565b3480156105c957600080fd5b506102236105d8366004612dcb565b61161a565b3480156105e957600080fd5b5061031e60025481565b3480156105ff57600080fd5b5061022361060e366004612dcb565b6116f9565b336106266000546001600160a01b031690565b6001600160a01b03161461066f5760405162461bcd60e51b81526020600482018190526024820152600080516020613ddb83398151915260448201526064015b60405180910390fd5b6001600160a01b0381166106b75760405162461bcd60e51b815260206004820152600f60248201526e696e76616c6964206164647265737360881b6044820152606401610666565b600680546001600160a01b0319166001600160a01b0383169081179091556040519081527fd60e9ceb4f54f1bfb1741a4b35fc9d806d7ed48200b523203b92248ea38fa17d906020015b60405180910390a150565b3361071f6000546001600160a01b031690565b6001600160a01b0316146107635760405162461bcd60e51b81526020600482018190526024820152600080516020613ddb8339815191526044820152606401610666565b60018190556040518181527f892dfdc99ecd3bb4f2f2cb118dca02f0bd16640ff156d3c6459d4282e336a5f290602001610701565b600046306040516020016107e992919091825260601b6001600160601b03191660208201527f77697468647261774665650000000000000000000000000000000000000000006034820152603f0190565b60408051808303601f19018152828252805160209182012090830181905260608c901b6001600160601b0319168383015260548084018c9052825180850390910181526074840192839052633416de1160e11b90925292507f00000000000000000000000000000000000000000000000000000000000000006001600160a01b03169163682dbc229161088a918b908b908b908b908b908b90607801613622565b60006040518083038186803b1580156108a257600080fd5b505afa1580156108b6573d6000803e3d6000fd5b505050506001600160a01b0389166000908152600360205260408120546108dd908a613696565b90506000811161092f5760405162461bcd60e51b815260206004820152601960248201527f4e6f206e657720616d6f756e7420746f207769746864726177000000000000006044820152606401610666565b6001600160a01b038a166000818152600360205260408082208c90555190919061c35090849084818181858888f193505050503d806000811461098e576040519150601f19603f3d011682016040523d82523d6000602084013e610993565b606091505b50509050806109e45760405162461bcd60e51b815260206004820152601660248201527f6661696c656420746f20776974686472617720666565000000000000000000006044820152606401610666565b604080516001600160a01b038d168152602081018490527f78473f3f373f7673597f4f0fa5873cb4d375fea6d4339ad6b56dbd411513cb3f910160405180910390a15050505050505050505050565b610a3b6117e6565b610a48858585858561184a565b5050505050565b6000610a5a88611902565b90506000808281526004602081905260409091205460ff1690811115610a8257610a82613384565b14610acf5760405162461bcd60e51b815260206004820152601960248201527f7472616e7366657220616c7265616479206578656375746564000000000000006044820152606401610666565b6000818152600460208181526040808420805460ff1916909317909255815146918101919091526001600160601b03193060601b16918101919091527f4d657373616765576974685472616e73666572000000000000000000000000006054820152606701604051602081830303815290604052805190602001209050600560009054906101000a90046001600160a01b03166001600160a01b031663682dbc2282848e8e8e6101000135604051602001610b8e9594939291906136a9565b6040516020818303038152906040528a8a8a8a8a8a6040518863ffffffff1660e01b8152600401610bc59796959493929190613622565b60006040518083038186803b158015610bdd57600080fd5b505afa158015610bf1573d6000803e3d6000fd5b50505050600080610c038b8e8e611ffd565b90506001816002811115610c1957610c19613384565b03610c275760019150610cef565b6002816002811115610c3b57610c3b613384565b03610cbb576000848152600460205260408120805460ff19166001835b02179055507fe49c2c954d381d1448cf824743aeff9da7a1d82078a7c9e5817269cc359bd26c6000858d60c0016020810190610c9491906136cb565b8e6101000135604051610caa9493929190613705565b60405180910390a150505050610d34565b610cc68b8e8e612138565b90506001816002811115610cdc57610cdc613384565b03610cea5760039150610cef565b600291505b60008481526004602081905260409091208054849260ff19909116906001908490811115610d1f57610d1f613384565b0217905550610d2f84838d612173565b505050505b505050505050505050565b610d58610d526040830160208401613738565b836121e5565b610d93610d658280613759565b60208401610d776101408601866137a0565b610d856101608801886137a0565b6103c26101808a018a6137a0565b5050565b468503610dd85760405162461bcd60e51b815260206004820152600f60248201526e125b9d985b1a590818da185a5b9259608a1b6044820152606401610666565b6000610de48383610f3b565b905080341015610e295760405162461bcd60e51b815260206004820152601060248201526f496e73756666696369656e742066656560801b6044820152606401610666565b336001600160a01b03167f172762498a59a3bc4fed3f2b63f94f17ea0193cffdc304fe7d3eaf4d342d2f6688888888888834604051610e6e97969594939291906137ea565b60405180910390a250505050505050565b33610e926000546001600160a01b031690565b6001600160a01b031614610ed65760405162461bcd60e51b81526020600482018190526024820152600080516020613ddb8339815191526044820152606401610666565b600a55565b6000610ee68861242f565b9050610f2f8a8a838a8a8a8a8a8a6040518060400160405280600781526020017f4d657373616765000000000000000000000000000000000000000000000000008152506124e6565b50505050505050505050565b600254600090610f4b9083613837565b600154610f58919061384e565b90505b92915050565b33610f746000546001600160a01b031690565b6001600160a01b031614610fb85760405162461bcd60e51b81526020600482018190526024820152600080516020613ddb8339815191526044820152606401610666565b6001600160a01b0381166110005760405162461bcd60e51b815260206004820152600f60248201526e696e76616c6964206164647265737360881b6044820152606401610666565b600580546001600160a01b0319166001600160a01b0383169081179091556040519081527fbf9977180dc6e6cff25598c8e59150cecd7f8e448e092633d38ab7ee223ae05890602001610701565b611061610d526040830160208401613738565b610d9361106e8280613759565b602084016110806101408601866137a0565b61108e6101608801886137a0565b6102936101808a018a6137a0565b60006110a788611902565b90506000808281526004602081905260409091205460ff16908111156110cf576110cf613384565b1461111c5760405162461bcd60e51b815260206004820152601960248201527f7472616e7366657220616c7265616479206578656375746564000000000000006044820152606401610666565b6000818152600460208181526040808420805460ff1916909317909255815146918101919091526001600160601b03193060601b16918101919091527f4d657373616765576974685472616e73666572526566756e64000000000000006054820152606d01604051602081830303815290604052805190602001209050600560009054906101000a90046001600160a01b03166001600160a01b031663682dbc2282848e8e8e61010001356040516020016111db9594939291906136a9565b6040516020818303038152906040528a8a8a8a8a8a6040518863ffffffff1660e01b81526004016112129796959493929190613622565b60006040518083038186803b15801561122a57600080fd5b505afa15801561123e573d6000803e3d6000fd5b505050506000806112508b8e8e61273a565b9050600181600281111561126657611266613384565b036112745760019150610cef565b600281600281111561128857611288613384565b03610cea576000848152600460205260408120805460ff1916600183610c58565b6112b4838383612791565b336001600160a01b03167fe66fbe37d84ca73c589f782ac278844918ea6c56a4917f58707f715588080df28686868686346040516112f796959493929190613861565b60405180910390a25050505050565b336113196000546001600160a01b031690565b6001600160a01b03161461135d5760405162461bcd60e51b81526020600482018190526024820152600080516020613ddb8339815191526044820152606401610666565b6001600160a01b0381166113a55760405162461bcd60e51b815260206004820152600f60248201526e696e76616c6964206164647265737360881b6044820152606401610666565b600880546001600160a01b0319166001600160a01b0383169081179091556040519081527ffb337a6c76476534518d5816caeb86263972470fedccfd047a35eb1825eaa9e890602001610701565b336114066000546001600160a01b031690565b6001600160a01b03161461144a5760405162461bcd60e51b81526020600482018190526024820152600080516020613ddb8339815191526044820152606401610666565b6001600160a01b0381166114925760405162461bcd60e51b815260206004820152600f60248201526e696e76616c6964206164647265737360881b6044820152606401610666565b600780546001600160a01b0319166001600160a01b0383169081179091556040519081527fa9db0c32d9c6c2f75f3b95047a9e67cc1c010eab792a4e6ca777ce918ad94aad90602001610701565b6114eb838383612791565b336001600160a01b03167fce3972bfffe49d317e1d128047a97a3d86b25c94f6f04409f988ef854d25e0e4858585853460405161152c9594939291906138a2565b60405180910390a250505050565b600061154588612829565b9050610f2f8a8a838a8a8a8a8a8a6040518060400160405280600881526020017f4d657373616765320000000000000000000000000000000000000000000000008152506124e6565b336115a16000546001600160a01b031690565b6001600160a01b0316146115e55760405162461bcd60e51b81526020600482018190526024820152600080516020613ddb8339815191526044820152606401610666565b60028190556040518181527f210d4d5d2d36d571207dac98e383e2441c684684c885fb2d7c54f8d24422074c90602001610701565b3361162d6000546001600160a01b031690565b6001600160a01b0316146116715760405162461bcd60e51b81526020600482018190526024820152600080516020613ddb8339815191526044820152606401610666565b6001600160a01b0381166116ed5760405162461bcd60e51b815260206004820152602660248201527f4f776e61626c653a206e6577206f776e657220697320746865207a65726f206160448201527f64647265737300000000000000000000000000000000000000000000000000006064820152608401610666565b6116f6816128bf565b50565b3361170c6000546001600160a01b031690565b6001600160a01b0316146117505760405162461bcd60e51b81526020600482018190526024820152600080516020613ddb8339815191526044820152606401610666565b6001600160a01b0381166117985760405162461bcd60e51b815260206004820152600f60248201526e696e76616c6964206164647265737360881b6044820152606401610666565b600980546001600160a01b0319166001600160a01b0383169081179091556040519081527f918a691a2a82482a10e11f43d7b627b2ba220dd08f251cb61933c42560f6fcb590602001610701565b6000546001600160a01b03161561183f5760405162461bcd60e51b815260206004820152601160248201527f6f776e657220616c7265616479207365740000000000000000000000000000006044820152606401610666565b611848336128bf565b565b6005546001600160a01b0316156118a35760405162461bcd60e51b815260206004820152601b60248201527f6c697175696469747942726964676520616c72656164792073657400000000006044820152606401610666565b600580546001600160a01b03199081166001600160a01b03978816179091556006805482169587169590951790945560078054851693861693909317909255600880548416918516919091179055600980549092169216919091179055565b60008080806119146020860186613738565b9050600181600681111561192a5761192a613384565b03611abd576005546001600160a01b0316915061194d6040860160208701612dcb565b61195d6060870160408801612dcb565b61196d6080880160608901612dcb565b608088013561198260e08a0160c08b016136cb565b6040516001600160601b0319606096871b8116602083015294861b851660348201529290941b9092166048820152605c8101919091526001600160c01b031960c092831b8116607c8301524690921b909116608482015260e0860135608c82015260ac0160408051808303601f19018152908290528051602090910120633c64f04b60e01b82526004820181905293506001600160a01b03831690633c64f04b90602401602060405180830381865afa158015611a43573d6000803e3d6000fd5b505050506040513d601f19601f82011682018060405250810190611a6791906138dd565b1515600114611ab85760405162461bcd60e51b815260206004820152600f60248201527f72656c6179206e6f7420657869737400000000000000000000000000000000006044820152606401610666565b611f0d565b6002816006811115611ad157611ad1613384565b03611c36576005546001600160a01b0316915046611af560c0870160a088016136cb565b611b056060880160408901612dcb565b611b156080890160608a01612dcb565b6040516001600160c01b031960c095861b811660208301529390941b90921660288401526001600160601b0319606091821b8116603085015291901b1660448201526080860135605882015260780160408051808303601f19018152908290528051602090910120631c13568560e31b82526004820181905293506001600160a01b0383169063e09ab42890602401602060405180830381865afa158015611bc1573d6000803e3d6000fd5b505050506040513d601f19601f82011682018060405250810190611be591906138dd565b1515600114611ab85760405162461bcd60e51b815260206004820152601260248201527f7769746864726177206e6f7420657869737400000000000000000000000000006044820152606401610666565b6003816006811115611c4a57611c4a613384565b1480611c6757506004816006811115611c6557611c65613384565b145b15611d5e576003816006811115611c8057611c80613384565b14611c96576007546001600160a01b0316611ca3565b6006546001600160a01b03165b9150611cb56060860160408701612dcb565b611cc56080870160608801612dcb565b6080870135611cda6040890160208a01612dcb565b611cea60e08a0160c08b016136cb565b604051606095861b6001600160601b0319908116602083015294861b851660348201526048810193909352931b909116606882015260c09190911b6001600160c01b031916607c82015260e0860135608482015260a401604051602081830303815290604052805190602001209250611e53565b6005816006811115611d7257611d72613384565b14611d88576009546001600160a01b0316611d95565b6008546001600160a01b03165b9150611da76060860160408701612dcb565b611db76080870160608801612dcb565b6080870135611dcc6040890160208a01612dcb565b611ddc60e08a0160c08b016136cb565b604051606095861b6001600160601b0319908116602083015294861b85166034820152604881019390935290841b8316606883015260c01b6001600160c01b031916607c82015260e088013560848201529184901b1660a482015260b8016040516020818303038152906040528051906020012092505b6040516301e6472560e01b8152600481018490526001600160a01b038316906301e6472590602401602060405180830381865afa158015611e98573d6000803e3d6000fd5b505050506040513d601f19601f82011682018060405250810190611ebc91906138dd565b1515600114611f0d5760405162461bcd60e51b815260206004820152601060248201527f7265636f7264206e6f74206578697374000000000000000000000000000000006044820152606401610666565b60405163adc0d57f60e01b8152600481018490526001600160a01b0383169063adc0d57f90602401608060405180830381865afa158015611f52573d6000803e3d6000fd5b505050506040513d601f19601f82011682018060405250810190611f769190613915565b6060015115611fc75760405162461bcd60e51b815260206004820152601060248201527f7472616e736665722064656c61796564000000000000000000000000000000006044820152606401610666565b60008284604051602001611fdd939291906139a1565b604051602081830303815290604052805190602001209350505050919050565b6000805a90506000806120166060880160408901612dcb565b6001600160a01b031634631f34afff60e21b61203860408b0160208c01612dcb565b61204860808c0160608d01612dcb565b60808c013561205d60e08e0160c08f016136cb565b8c8c3360405160240161207697969594939291906139cd565b60408051601f198184030181529181526020820180516001600160e01b03166001600160e01b03199094169390931790925290516120b49190613a26565b60006040518083038185875af1925050503d80600081146120f1576040519150601f19603f3d011682016040523d82523d6000602084013e6120f6565b606091505b5091509150811561211f57808060200190518101906121159190613a42565b9350505050612131565b612129838261290f565b600093505050505b9392505050565b6000805a90506000806121516060880160408901612dcb565b6001600160a01b031634632d5bd7e360e11b61203860408b0160208c01612dcb565b6121836060820160408301612dcb565b6001600160a01b03167fa635eb05143f74743822bbd96428928de4c8ee8cc578299749be9425c17bb34d600085856121c160e0870160c088016136cb565b8661010001356040516121d8959493929190613a63565b60405180910390a2505050565b60018260068111156121f9576121f9613384565b03612299576005546001600160a01b031663cdd1b25d6122198380613759565b61222660208601866137a0565b61223360408801886137a0565b61224060608a018a6137a0565b6040518963ffffffff1660e01b8152600401612263989796959493929190613aa1565b600060405180830381600087803b15801561227d57600080fd5b505af1158015612291573d6000803e3d6000fd5b505050505050565b60028260068111156122ad576122ad613384565b036122cd576005546001600160a01b031663a21a92806122198380613759565b60038260068111156122e1576122e1613384565b03612301576006546001600160a01b031663f87343026122198380613759565b600582600681111561231557612315613384565b036123c7576008546001600160a01b031663f87343026123358380613759565b61234260208601866137a0565b61234f60408801886137a0565b61235c60608a018a6137a0565b6040518963ffffffff1660e01b815260040161237f989796959493929190613aa1565b6020604051808303816000875af115801561239e573d6000803e3d6000fd5b505050506040513d601f19601f820116820180604052508101906123c29190613b01565b505050565b60048260068111156123db576123db613384565b036123fb576007546001600160a01b031663a21a92806122198380613759565b600682600681111561240f5761240f613384565b03610d93576009546001600160a01b031663a21a92806123358380613759565b6040805160a081018252600080825260606020830181905292820181905291810182905260808101919091526040805160a08101909152806124746020850185612dcb565b6001600160a01b031681526020016040518060200160405280600081525081526020018360200160208101906124aa9190612dcb565b6001600160a01b031681526020016124c860608501604086016136cb565b67ffffffffffffffff16815260200183606001358152509050919050565b60006124f3898c8c61299a565b90506000808281526004602081905260409091205460ff169081111561251b5761251b613384565b146125685760405162461bcd60e51b815260206004820152601860248201527f6d65737361676520616c726561647920657865637574656400000000000000006044820152606401610666565b6000818152600460208181526040808420805460ff191690931790925590516125979146913091879101613b1a565b60408051601f1981840301815282825280516020918201206005549184018190528383018690528251808503840181526060850193849052633416de1160e11b90935293506001600160a01b03169163682dbc2291612604918d908d908d908d908d908d90606401613622565b60006040518083038186803b15801561261c57600080fd5b505afa158015612630573d6000803e3d6000fd5b505050506000806126428c8f8f612a2e565b9050600181600281111561265857612658613384565b0361266657600191506126ea565b600281600281111561267a5761267a613384565b036126e55760008481526004602052604090819020805460ff1916905560608d015160808e015191517fe49c2c954d381d1448cf824743aeff9da7a1d82078a7c9e5817269cc359bd26c926126d492600192899290613705565b60405180910390a150505050610f2f565b600291505b60008481526004602081905260409091208054849260ff1990911690600190849081111561271a5761271a613384565b021790555061272a84838e612c0f565b5050505050505050505050505050565b6000805a90506000806127536060880160408901612dcb565b6001600160a01b0316346305e5a4c160e11b61277560808b0160608c01612dcb565b8a608001358a8a33604051602401612076959493929190613b59565b4683036127d25760405162461bcd60e51b815260206004820152600f60248201526e125b9d985b1a590818da185a5b9259608a1b6044820152606401610666565b60006127de8383610f3b565b9050803410156128235760405162461bcd60e51b815260206004820152601060248201526f496e73756666696369656e742066656560801b6044820152606401610666565b50505050565b6040805160a081018252600080825260606020830181905292820181905291810182905260808101919091526040805160a0810190915260008152602081016128728480613759565b8080601f0160208091040260200160405190810160405280939291908181526020018383808284376000920191909152505050908252506020908101906124aa9060408601908601612dcb565b600080546001600160a01b038381166001600160a01b0319831681178455604051919092169283917f8be0079c531659141344cd1fd0a4f28419497f9722a3daafe3b4186f6b6457e09190a35050565b60005a90506000600a54456129249190613696565b9050808410801561293f575061293b604085613b98565b8211155b1561294657fe5b600061295184612c5d565b905061295c81612cbc565b7fffdd6142bbb721f3400e3908b04b86f60649b2e4d191e3f4c50c32c3e6471d2f8160405161298b9190613bba565b60405180910390a15050505050565b602083015180516000919082036129e25784516040516129d0919060200160609190911b6001600160601b031916815260140190565b60405160208183030381529060405290505b600181866040015187606001518860800151468989604051602001612a0e989796959493929190613bcd565b604051602081830303815290604052805190602001209150509392505050565b6000805a905060006060866020015151600003612b1e5786604001516001600160a01b0316346040518060600160405280602c8152602001613dfb602c91398051602090910120895160608b0151604051612a939291908c908c903390602401613c4e565b60408051601f198184030181529181526020820180516001600160e01b03166001600160e01b0319909416939093179092529051612ad19190613a26565b60006040518083038185875af1925050503d8060008114612b0e576040519150601f19603f3d011682016040523d82523d6000602084013e612b13565b606091505b509092509050612bf5565b86604001516001600160a01b0316346040518060600160405280602a8152602001613db1602a91398051906020012089602001518a606001518a8a33604051602401612b6e959493929190613c82565b60408051601f198184030181529181526020820180516001600160e01b03166001600160e01b0319909416939093179092529051612bac9190613a26565b60006040518083038185875af1925050503d8060008114612be9576040519150601f19603f3d011682016040523d82523d6000602084013e612bee565b606091505b5090925090505b811561211f57808060200190518101906121159190613a42565b80604001516001600160a01b03167fa635eb05143f74743822bbd96428928de4c8ee8cc578299749be9425c17bb34d60018585856060015186608001516040516121d8959493929190613a63565b6060604482511015612ca257505060408051808201909152601d81527f5472616e73616374696f6e2072657665727465642073696c656e746c79000000602082015290565b60048201915081806020019051810190610f5b9190613cd4565b60408051808201909152600b8082527f4d53473a3a41424f52543a000000000000000000000000000000000000000000602083015282518391116123c25760005b8251811015612d9b57828181518110612d1857612d18613d81565b602001015160f81c60f81b7effffffffffffffffffffffffffffffffffffffffffffffffffffffffffffff1916828281518110612d5757612d57613d81565b01602001517fff000000000000000000000000000000000000000000000000000000000000001614612d895750505050565b80612d9381613d97565b915050612cfd565b508260405162461bcd60e51b81526004016106669190613bba565b6001600160a01b03811681146116f657600080fd5b600060208284031215612ddd57600080fd5b813561213181612db6565b600060208284031215612dfa57600080fd5b5035919050565b60008083601f840112612e1357600080fd5b50813567ffffffffffffffff811115612e2b57600080fd5b6020830191508360208260051b8501011115612e4657600080fd5b9250929050565b60008060008060008060008060a0898b031215612e6957600080fd5b8835612e7481612db6565b975060208901359650604089013567ffffffffffffffff80821115612e9857600080fd5b612ea48c838d01612e01565b909850965060608b0135915080821115612ebd57600080fd5b612ec98c838d01612e01565b909650945060808b0135915080821115612ee257600080fd5b50612eef8b828c01612e01565b999c989b5096995094979396929594505050565b600080600080600060a08688031215612f1b57600080fd5b8535612f2681612db6565b94506020860135612f3681612db6565b93506040860135612f4681612db6565b92506060860135612f5681612db6565b91506080860135612f6681612db6565b809150509295509295909350565b60008083601f840112612f8657600080fd5b50813567ffffffffffffffff811115612f9e57600080fd5b602083019150836020828501011115612e4657600080fd5b6000806000806000806000806000898b036101a0811215612fd657600080fd5b8a3567ffffffffffffffff80821115612fee57600080fd5b612ffa8e838f01612f74565b909c509a508a9150610120601f198401121561301557600080fd5b60208d0199506101408d013592508083111561303057600080fd5b61303c8e848f01612e01565b90995097506101608d013592508891508083111561305957600080fd5b6130658e848f01612e01565b90975095506101808d013592508691508083111561308257600080fd5b50506130908c828d01612e01565b915080935050809150509295985092959850929598565b6000608082840312156130b957600080fd5b50919050565b600080604083850312156130d257600080fd5b823567ffffffffffffffff808211156130ea57600080fd5b6130f6868387016130a7565b9350602085013591508082111561310c57600080fd5b5083016101a0818603121561312057600080fd5b809150509250929050565b60008060008060008060a0878903121561314457600080fd5b863561314f81612db6565b955060208701359450604087013561316681612db6565b935060608701359250608087013567ffffffffffffffff81111561318957600080fd5b61319589828a01612f74565b979a9699509497509295939492505050565b60008060008060008060008060006101008a8c0312156131c657600080fd5b893567ffffffffffffffff808211156131de57600080fd5b6131ea8d838e01612f74565b909b5099508991506131ff8d60208e016130a7565b985060a08c013591508082111561321557600080fd5b6132218d838e01612e01565b909850965060c08c013591508082111561323a57600080fd5b6132468d838e01612e01565b909650945060e08c013591508082111561325f57600080fd5b506130908c828d01612e01565b6000806020838503121561327f57600080fd5b823567ffffffffffffffff81111561329657600080fd5b6132a285828601612f74565b90969095509350505050565b6000806000806000606086880312156132c657600080fd5b853567ffffffffffffffff808211156132de57600080fd5b6132ea89838a01612f74565b909750955060208801359450604088013591508082111561330a57600080fd5b5061331788828901612f74565b969995985093965092949392505050565b6000806000806060858703121561333e57600080fd5b843561334981612db6565b935060208501359250604085013567ffffffffffffffff81111561336c57600080fd5b61337887828801612f74565b95989497509550505050565b634e487b7160e01b600052602160045260246000fd5b600581106133aa576133aa613384565b9052565b60208101610f5b828461339a565b600080600080600080600080600060a08a8c0312156133da57600080fd5b893567ffffffffffffffff808211156133f257600080fd5b6133fe8d838e01612f74565b909b50995060208c013591508082111561341757600080fd5b6134238d838e016130a7565b985060408c013591508082111561343957600080fd5b6134458d838e01612e01565b909850965060608c013591508082111561345e57600080fd5b61346a8d838e01612e01565b909650945060808c013591508082111561325f57600080fd5b60005b8381101561349e578181015183820152602001613486565b50506000910152565b600081518084526134bf816020860160208601613483565b601f01601f19169290920160200192915050565b81835281816020850137506000828201602090810191909152601f909101601f19169091010190565b81835260006020808501808196508560051b810191508460005b878110156135815782840389528135601e1988360301811261353757600080fd5b8701858101903567ffffffffffffffff81111561355357600080fd5b80360382131561356257600080fd5b61356d8682846134d3565b9a87019a9550505090840190600101613516565b5091979650505050505050565b8183526000602080850194508260005b858110156135cc5781356135b181612db6565b6001600160a01b03168752958201959082019060010161359e565b509495945050505050565b81835260007f07ffffffffffffffffffffffffffffffffffffffffffffffffffffffffffffff83111561360957600080fd5b8260051b80836020870137939093016020019392505050565b608081526000613635608083018a6134a7565b828103602084015261364881898b6134fc565b9050828103604084015261365d81878961358e565b905082810360608401526136728185876135d7565b9a9950505050505050505050565b634e487b7160e01b600052601160045260246000fd5b81810381811115610f5b57610f5b613680565b8581528460208201528284604083013760409201918201526060019392505050565b6000602082840312156136dd57600080fd5b813567ffffffffffffffff8116811461213157600080fd5b600281106133aa576133aa613384565b6080810161371382876136f5565b84602083015267ffffffffffffffff8416604083015282606083015295945050505050565b60006020828403121561374a57600080fd5b81356007811061213157600080fd5b6000808335601e1984360301811261377057600080fd5b83018035915067ffffffffffffffff82111561378b57600080fd5b602001915036819003821315612e4657600080fd5b6000808335601e198436030181126137b757600080fd5b83018035915067ffffffffffffffff8211156137d257600080fd5b6020019150600581901b3603821315612e4657600080fd5b60006001600160a01b03808a16835288602084015280881660408401525085606083015260c0608083015261382360c0830185876134d3565b90508260a083015298975050505050505050565b8082028115828204841417610f5b57610f5b613680565b80820180821115610f5b57610f5b613680565b60808152600061387560808301888a6134d3565b866020840152828103604084015261388e8186886134d3565b915050826060830152979650505050505050565b6001600160a01b03861681528460208201526080604082015260006138cb6080830185876134d3565b90508260608301529695505050505050565b6000602082840312156138ef57600080fd5b8151801515811461213157600080fd5b634e487b7160e01b600052604160045260246000fd5b60006080828403121561392757600080fd5b6040516080810181811067ffffffffffffffff8211171561394a5761394a6138ff565b604052825161395881612db6565b8152602083015161396881612db6565b6020820152604083810151908201526060928301519281019290925250919050565b6002811061399a5761399a613384565b60f81b9052565b6139ab818561398a565b60609290921b6001600160601b03191660018301526015820152603501919050565b60006001600160a01b03808a168352808916602084015287604084015267ffffffffffffffff8716606084015260c06080840152613a0f60c0840186886134d3565b915080841660a08401525098975050505050505050565b60008251613a38818460208701613483565b9190910192915050565b600060208284031215613a5457600080fd5b81516003811061213157600080fd5b60a08101613a7182886136f5565b856020830152613a84604083018661339a565b67ffffffffffffffff939093166060820152608001529392505050565b608081526000613ab5608083018a8c6134d3565b8281036020840152613ac881898b6134fc565b90508281036040840152613add81878961358e565b90508281036060840152613af28185876135d7565b9b9a5050505050505050505050565b600060208284031215613b1357600080fd5b5051919050565b8381526bffffffffffffffffffffffff198360601b16602082015260008251613b4a816034850160208701613483565b91909101603401949350505050565b60006001600160a01b03808816835286602084015260806040840152613b836080840186886134d3565b91508084166060840152509695505050505050565b600082613bb557634e487b7160e01b600052601260045260246000fd5b500490565b602081526000610f5860208301846134a7565b613bd7818a61398a565b60008851613bec816001850160208d01613483565b80830190506bffffffffffffffffffffffff198960601b1660018201526001600160c01b0319808960c01b16601583015287601d830152808760c01b16603d830152508385604583013760009301604501928352509098975050505050505050565b60006001600160a01b03808816835267ffffffffffffffff8716602084015260806040840152613b836080840186886134d3565b608081526000613c9560808301886134a7565b67ffffffffffffffff871660208401528281036040840152613cb88186886134d3565b9150506001600160a01b03831660608301529695505050505050565b600060208284031215613ce657600080fd5b815167ffffffffffffffff80821115613cfe57600080fd5b818401915084601f830112613d1257600080fd5b815181811115613d2457613d246138ff565b604051601f8201601f19908116603f01168101908382118183101715613d4c57613d4c6138ff565b81604052828152876020848701011115613d6557600080fd5b613d76836020830160208801613483565b979650505050505050565b634e487b7160e01b600052603260045260246000fd5b600060018201613da957613da9613680565b506001019056fe657865637574654d6573736167652862797465732c75696e7436342c62797465732c61646472657373294f776e61626c653a2063616c6c6572206973206e6f7420746865206f776e6572657865637574654d65737361676528616464726573732c75696e7436342c62797465732c6164647265737329a26469706673582212203f0b08ba23bd76a0b3be2037e26c151e3082327c8ca8563fd1175d3243acbef464736f6c63430008110033",
  "devdoc": {
    "kind": "dev",
    "methods": {
      "calcFee(bytes)": {
        "params": {
          "_message": "Arbitrary message bytes to be decoded by the destination app contract. @return The required fee."
        }
      },
      "executeMessage(bytes,(address,address,uint64,bytes32),bytes[],address[],uint256[])": {
        "params": {
          "_message": "Arbitrary message bytes originated from and encoded by the source app contract",
          "_powers": "The signing powers of the signers.",
          "_route": "The info about the sender and the receiver.",
          "_signers": "The sorted list of signers.",
          "_sigs": "The list of signatures sorted by signing addresses in ascending order. A relay must be signed-off by +2/3 of the sigsVerifier's current signing power to be delivered."
        }
      },
      "executeMessageWithTransfer(bytes,(uint8,address,address,address,uint256,uint64,uint64,bytes32,bytes32),bytes[],address[],uint256[])": {
        "params": {
          "_message": "Arbitrary message bytes originated from and encoded by the source app contract",
          "_powers": "The signing powers of the signers.",
          "_signers": "The sorted list of signers.",
          "_sigs": "The list of signatures sorted by signing addresses in ascending order. A relay must be signed-off by +2/3 of the sigsVerifier's current signing power to be delivered.",
          "_transfer": "The transfer info."
        }
      },
      "executeMessageWithTransferRefund(bytes,(uint8,address,address,address,uint256,uint64,uint64,bytes32,bytes32),bytes[],address[],uint256[])": {
        "params": {
          "_message": "Arbitrary message bytes originated from and encoded by the source app contract",
          "_powers": "The signing powers of the signers.",
          "_signers": "The sorted list of signers.",
          "_sigs": "The list of signatures sorted by signing addresses in ascending order. A relay must be signed-off by +2/3 of the sigsVerifier's current signing power to be delivered.",
          "_transfer": "The transfer info."
        }
      },
      "owner()": {
        "details": "Returns the address of the current owner."
      },
      "refundAndExecuteMsg((bytes,bytes[],address[],uint256[]),(bytes,(uint8,address,address,address,uint256,uint64,uint64,bytes32,bytes32),bytes[],address[],uint256[]))": {
        "details": "caller needs to get the required input params from SGN",
        "params": {
          "_mp": "params to execute message for refund",
          "_tp": "params to call bridge transfer for refund"
        }
      },
      "sendMessage(address,uint256,bytes)": {
        "params": {
          "_dstChainId": "The destination chain ID.",
          "_message": "Arbitrary message bytes to be decoded by the destination app contract.",
          "_receiver": "The address of the destination app contract."
        }
      },
      "sendMessageWithTransfer(address,uint256,address,bytes32,bytes)": {
        "params": {
          "_dstChainId": "The destination chain ID.",
          "_message": "Arbitrary message bytes to be decoded by the destination app contract.",
          "_receiver": "The address of the destination app contract.",
          "_srcBridge": "The bridge contract to send the transfer with.",
          "_srcTransferId": "The transfer ID."
        }
      },
      "transferAndExecuteMsg((bytes,bytes[],address[],uint256[]),(bytes,(uint8,address,address,address,uint256,uint64,uint64,bytes32,bytes32),bytes[],address[],uint256[]))": {
        "details": "caller needs to get the required input params from SGN",
        "params": {
          "_mp": "params to execute message",
          "_tp": "params to call bridge transfer"
        }
      },
      "transferOwnership(address)": {
        "details": "Transfers ownership of the contract to a new account (`newOwner`). Can only be called by the current owner."
      },
      "withdrawFee(address,uint256,bytes[],address[],uint256[])": {
        "params": {
          "_account": "The address receiving the fee.",
          "_cumulativeFee": "The cumulative fee credited to the account. Tracked by SGN.",
          "_powers": "The signing powers of the signers.",
          "_signers": "The sorted list of signers.",
          "_sigs": "The list of signatures sorted by signing addresses in ascending order. A withdrawal must be signed-off by +2/3 of the sigsVerifier's current signing power to be delivered."
        }
      }
    },
    "version": 1
  },
  "userdoc": {
    "kind": "user",
    "methods": {
      "calcFee(bytes)": {
        "notice": "Calculates the required fee for the message."
      },
      "executeMessage(bytes,(address,address,uint64,bytes32),bytes[],address[],uint256[])": {
        "notice": "Execute a message not associated with a transfer."
      },
      "executeMessageWithTransfer(bytes,(uint8,address,address,address,uint256,uint64,uint64,bytes32,bytes32),bytes[],address[],uint256[])": {
        "notice": "Execute a message with a successful transfer."
      },
      "executeMessageWithTransferRefund(bytes,(uint8,address,address,address,uint256,uint64,uint64,bytes32,bytes32),bytes[],address[],uint256[])": {
        "notice": "Execute a message with a refunded transfer."
      },
      "refundAndExecuteMsg((bytes,bytes[],address[],uint256[]),(bytes,(uint8,address,address,address,uint256,uint64,uint64,bytes32,bytes32),bytes[],address[],uint256[]))": {
        "notice": "combine bridge refund and msg execution calls into a single tx"
      },
      "sendMessage(address,uint256,bytes)": {
        "notice": "Sends a message to a contract on another chain. Sender needs to make sure the uniqueness of the message Id, which is computed as hash(type.MessageOnly, sender, receiver, srcChainId, srcTxHash, dstChainId, message). If messages with the same Id are sent, only one of them will succeed at dst chain. A fee is charged in the native gas token."
      },
      "sendMessageWithTransfer(address,uint256,address,bytes32,bytes)": {
        "notice": "Sends a message associated with a transfer to a contract on another chain. If messages with the same srcTransferId are sent, only one of them will succeed. A fee is charged in the native token."
      },
      "transferAndExecuteMsg((bytes,bytes[],address[],uint256[]),(bytes,(uint8,address,address,address,uint256,uint64,uint64,bytes32,bytes32),bytes[],address[],uint256[]))": {
        "notice": "combine bridge transfer and msg execution calls into a single tx"
      },
      "withdrawFee(address,uint256,bytes[],address[],uint256[])": {
        "notice": "Withdraws message fee in the form of native gas token."
      }
    },
    "version": 1
  },
  "storageLayout": {
    "storage": [
      {
        "astId": 35256,
        "contract": "contracts/message/messagebus/MessageBus.sol:MessageBus",
        "label": "_owner",
        "offset": 0,
        "slot": "0",
        "type": "t_address"
      },
      {
        "astId": 26382,
        "contract": "contracts/message/messagebus/MessageBus.sol:MessageBus",
        "label": "feeBase",
        "offset": 0,
        "slot": "1",
        "type": "t_uint256"
      },
      {
        "astId": 26384,
        "contract": "contracts/message/messagebus/MessageBus.sol:MessageBus",
        "label": "feePerByte",
        "offset": 0,
        "slot": "2",
        "type": "t_uint256"
      },
      {
        "astId": 26388,
        "contract": "contracts/message/messagebus/MessageBus.sol:MessageBus",
        "label": "withdrawnFees",
        "offset": 0,
        "slot": "3",
        "type": "t_mapping(t_address,t_uint256)"
      },
      {
        "astId": 24531,
        "contract": "contracts/message/messagebus/MessageBus.sol:MessageBus",
        "label": "executedMessages",
        "offset": 0,
        "slot": "4",
        "type": "t_mapping(t_bytes32,t_enum(TxStatus)24374)"
      },
      {
        "astId": 24533,
        "contract": "contracts/message/messagebus/MessageBus.sol:MessageBus",
        "label": "liquidityBridge",
        "offset": 0,
        "slot": "5",
        "type": "t_address"
      },
      {
        "astId": 24535,
        "contract": "contracts/message/messagebus/MessageBus.sol:MessageBus",
        "label": "pegBridge",
        "offset": 0,
        "slot": "6",
        "type": "t_address"
      },
      {
        "astId": 24537,
        "contract": "contracts/message/messagebus/MessageBus.sol:MessageBus",
        "label": "pegVault",
        "offset": 0,
        "slot": "7",
        "type": "t_address"
      },
      {
        "astId": 24539,
        "contract": "contracts/message/messagebus/MessageBus.sol:MessageBus",
        "label": "pegBridgeV2",
        "offset": 0,
        "slot": "8",
        "type": "t_address"
      },
      {
        "astId": 24541,
        "contract": "contracts/message/messagebus/MessageBus.sol:MessageBus",
        "label": "pegVaultV2",
        "offset": 0,
        "slot": "9",
        "type": "t_address"
      },
      {
        "astId": 24543,
        "contract": "contracts/message/messagebus/MessageBus.sol:MessageBus",
        "label": "preExecuteMessageGasUsage",
        "offset": 0,
        "slot": "10",
        "type": "t_uint256"
      }
    ],
    "types": {
      "t_address": {
        "encoding": "inplace",
        "label": "address",
        "numberOfBytes": "20"
      },
      "t_bytes32": {
        "encoding": "inplace",
        "label": "bytes32",
        "numberOfBytes": "32"
      },
      "t_enum(TxStatus)24374": {
        "encoding": "inplace",
        "label": "enum MsgDataTypes.TxStatus",
        "numberOfBytes": "1"
      },
      "t_mapping(t_address,t_uint256)": {
        "encoding": "mapping",
        "key": "t_address",
        "label": "mapping(address => uint256)",
        "numberOfBytes": "32",
        "value": "t_uint256"
      },
      "t_mapping(t_bytes32,t_enum(TxStatus)24374)": {
        "encoding": "mapping",
        "key": "t_bytes32",
        "label": "mapping(bytes32 => enum MsgDataTypes.TxStatus)",
        "numberOfBytes": "32",
        "value": "t_enum(TxStatus)24374"
      },
      "t_uint256": {
        "encoding": "inplace",
        "label": "uint256",
        "numberOfBytes": "32"
      }
    }
  }
}