{
  "address": "0x931765421E5970dda3e3499449A67fb03f4ebD4C",
  "abi": [
    {
      "inputs": [
        {
          "internalType": "contract ISigsVerifier",
          "name": "_sigsVerifier",
          "type": "address"
        }
      ],
      "stateMutability": "nonpayable",
      "type": "constructor"
    },
    {
      "anonymous": false,
      "inputs": [
        {
          "indexed": true,
          "internalType": "address",
          "name": "recipient",
          "type": "address"
        },
        {
          "indexed": true,
          "internalType": "address",
          "name": "token",
          "type": "address"
        },
        {
          "indexed": false,
          "internalType": "uint256",
          "name": "reward",
          "type": "uint256"
        }
      ],
      "name": "FarmingRewardClaimed",
      "type": "event"
    },
    {
      "anonymous": false,
      "inputs": [
        {
          "indexed": true,
          "internalType": "address",
          "name": "contributor",
          "type": "address"
        },
        {
          "indexed": true,
          "internalType": "address",
          "name": "token",
          "type": "address"
        },
        {
          "indexed": false,
          "internalType": "uint256",
          "name": "contribution",
          "type": "uint256"
        }
      ],
      "name": "FarmingRewardContributed",
      "type": "event"
    },
    {
      "anonymous": false,
      "inputs": [
        {
          "indexed": true,
          "internalType": "address",
          "name": "previousOwner",
          "type": "address"
        },
        {
          "indexed": true,
          "internalType": "address",
          "name": "newOwner",
          "type": "address"
        }
      ],
      "name": "OwnershipTransferred",
      "type": "event"
    },
    {
      "anonymous": false,
      "inputs": [
        {
          "indexed": false,
          "internalType": "address",
          "name": "account",
          "type": "address"
        }
      ],
      "name": "Paused",
      "type": "event"
    },
    {
      "anonymous": false,
      "inputs": [
        {
          "indexed": false,
          "internalType": "address",
          "name": "account",
          "type": "address"
        }
      ],
      "name": "PauserAdded",
      "type": "event"
    },
    {
      "anonymous": false,
      "inputs": [
        {
          "indexed": false,
          "internalType": "address",
          "name": "account",
          "type": "address"
        }
      ],
      "name": "PauserRemoved",
      "type": "event"
    },
    {
      "anonymous": false,
      "inputs": [
        {
          "indexed": false,
          "internalType": "address",
          "name": "account",
          "type": "address"
        }
      ],
      "name": "Unpaused",
      "type": "event"
    },
    {
      "inputs": [
        {
          "internalType": "address",
          "name": "account",
          "type": "address"
        }
      ],
      "name": "addPauser",
      "outputs": [],
      "stateMutability": "nonpayable",
      "type": "function"
    },
    {
      "inputs": [
        {
          "internalType": "bytes",
          "name": "_rewardsRequest",
          "type": "bytes"
        },
        {
          "internalType": "bytes[]",
          "name": "_sigs",
          "type": "bytes[]"
        },
        {
          "internalType": "address[]",
          "name": "_signers",
          "type": "address[]"
        },
        {
          "internalType": "uint256[]",
          "name": "_powers",
          "type": "uint256[]"
        }
      ],
      "name": "claimRewards",
      "outputs": [],
      "stateMutability": "nonpayable",
      "type": "function"
    },
    {
      "inputs": [
        {
          "internalType": "address",
          "name": "",
          "type": "address"
        },
        {
          "internalType": "address",
          "name": "",
          "type": "address"
        }
      ],
      "name": "claimedRewardAmounts",
      "outputs": [
        {
          "internalType": "uint256",
          "name": "",
          "type": "uint256"
        }
      ],
      "stateMutability": "view",
      "type": "function"
    },
    {
      "inputs": [
        {
          "internalType": "address",
          "name": "_token",
          "type": "address"
        },
        {
          "internalType": "uint256",
          "name": "_amount",
          "type": "uint256"
        }
      ],
      "name": "contributeToRewardPool",
      "outputs": [],
      "stateMutability": "nonpayable",
      "type": "function"
    },
    {
      "inputs": [
        {
          "internalType": "address",
          "name": "_token",
          "type": "address"
        },
        {
          "internalType": "uint256",
          "name": "_amount",
          "type": "uint256"
        }
      ],
      "name": "drainToken",
      "outputs": [],
      "stateMutability": "nonpayable",
      "type": "function"
    },
    {
      "inputs": [
        {
          "internalType": "address",
          "name": "account",
          "type": "address"
        }
      ],
      "name": "isPauser",
      "outputs": [
        {
          "internalType": "bool",
          "name": "",
          "type": "bool"
        }
      ],
      "stateMutability": "view",
      "type": "function"
    },
    {
      "inputs": [],
      "name": "owner",
      "outputs": [
        {
          "internalType": "address",
          "name": "",
          "type": "address"
        }
      ],
      "stateMutability": "view",
      "type": "function"
    },
    {
      "inputs": [],
      "name": "pause",
      "outputs": [],
      "stateMutability": "nonpayable",
      "type": "function"
    },
    {
      "inputs": [],
      "name": "paused",
      "outputs": [
        {
          "internalType": "bool",
          "name": "",
          "type": "bool"
        }
      ],
      "stateMutability": "view",
      "type": "function"
    },
    {
      "inputs": [
        {
          "internalType": "address",
          "name": "",
          "type": "address"
        }
      ],
      "name": "pausers",
      "outputs": [
        {
          "internalType": "bool",
          "name": "",
          "type": "bool"
        }
      ],
      "stateMutability": "view",
      "type": "function"
    },
    {
      "inputs": [
        {
          "internalType": "address",
          "name": "account",
          "type": "address"
        }
      ],
      "name": "removePauser",
      "outputs": [],
      "stateMutability": "nonpayable",
      "type": "function"
    },
    {
      "inputs": [],
      "name": "renouncePauser",
      "outputs": [],
      "stateMutability": "nonpayable",
      "type": "function"
    },
    {
      "inputs": [],
      "name": "sigsVerifier",
      "outputs": [
        {
          "internalType": "contract ISigsVerifier",
          "name": "",
          "type": "address"
        }
      ],
      "stateMutability": "view",
      "type": "function"
    },
    {
      "inputs": [
        {
          "internalType": "address",
          "name": "newOwner",
          "type": "address"
        }
      ],
      "name": "transferOwnership",
      "outputs": [],
      "stateMutability": "nonpayable",
      "type": "function"
    },
    {
      "inputs": [],
      "name": "unpause",
      "outputs": [],
      "stateMutability": "nonpayable",
      "type": "function"
    }
  ],
  "transactionHash": "0x5c4576832033621c2607326ec8b12982861212d58e20963afe385754c3114377",
  "args": [
    "0x4F04367977Eb022c1985464A59e7fb7001fB7F6e"
  ],
  "numDeployments": 1,
  "solcInputHash": "24a8ade26360662d0ce26222bfbba06d",
  "bytecode": "0x60a06040523480156200001157600080fd5b5060405162001d1b38038062001d1b833981016040819052620000349162000182565b6200003f3362000069565b6000805460ff60a01b191690556200005733620000b9565b6001600160a01b0316608052620001b4565b600080546001600160a01b038381166001600160a01b0319831681178455604051919092169283917f8be0079c531659141344cd1fd0a4f28419497f9722a3daafe3b4186f6b6457e09190a35050565b6001600160a01b03811660009081526001602052604090205460ff1615620001275760405162461bcd60e51b815260206004820152601960248201527f4163636f756e7420697320616c72656164792070617573657200000000000000604482015260640160405180910390fd5b6001600160a01b038116600081815260016020818152604092839020805460ff191690921790915590519182527f6719d08c1888103bea251a4ed56406bd0c3e69723c8a1686e017e7bbe159b6f8910160405180910390a150565b6000602082840312156200019557600080fd5b81516001600160a01b0381168114620001ad57600080fd5b9392505050565b608051611b44620001d76000396000818161024c01526104210152611b446000f3fe608060405234801561001057600080fd5b50600436106100f55760003560e01c806380f51c12116100975780638da5cb5b116100665780638da5cb5b1461020f5780639d4323be14610234578063ccf2683b14610247578063f2fde38b1461026e57600080fd5b806380f51c12146101be578063825168ff146101e157806382dc1ec4146101f45780638456cb591461020757600080fd5b80635c975abb116100d35780635c975abb1461017e5780636b2c0f55146101905780636b5d21e9146101a35780636ef8d66d146101b657600080fd5b80631744092e146100fa5780633f4ba83a1461013857806346fbf68e14610142575b600080fd5b610125610108366004611639565b600260209081526000928352604080842090915290825290205481565b6040519081526020015b60405180910390f35b610140610281565b005b61016e61015036600461166c565b6001600160a01b031660009081526001602052604090205460ff1690565b604051901515815260200161012f565b600054600160a01b900460ff1661016e565b61014061019e36600461166c565b6102ef565b6101406101b13660046116d3565b610364565b610140610693565b61016e6101cc36600461166c565b60016020526000908152604090205460ff1681565b6101406101ef3660046117c2565b61069c565b61014061020236600461166c565b610751565b6101406107c3565b6000546001600160a01b03165b6040516001600160a01b03909116815260200161012f565b6101406102423660046117c2565b61082a565b61021c7f000000000000000000000000000000000000000000000000000000000000000081565b61014061027c36600461166c565b610904565b3360009081526001602052604090205460ff166102e55760405162461bcd60e51b815260206004820152601460248201527f43616c6c6572206973206e6f742070617573657200000000000000000000000060448201526064015b60405180910390fd5b6102ed6109f2565b565b336103026000546001600160a01b031690565b6001600160a01b0316146103585760405162461bcd60e51b815260206004820181905260248201527f4f776e61626c653a2063616c6c6572206973206e6f7420746865206f776e657260448201526064016102dc565b61036181610a98565b50565b600054600160a01b900460ff16156103b15760405162461bcd60e51b815260206004820152601060248201526f14185d5cd8589b194e881c185d5cd95960821b60448201526064016102dc565b6000463060405160200161040792919091825260601b6bffffffffffffffffffffffff191660208201527f4661726d696e6752657761726473000000000000000000000000000000000000603482015260420190565b6040516020818303038152906040528051906020012090507f00000000000000000000000000000000000000000000000000000000000000006001600160a01b031663682dbc22828b8b604051602001610463939291906117ec565b6040516020818303038152906040528989898989896040518863ffffffff1660e01b815260040161049a9796959493929190611911565b60006040518083038186803b1580156104b257600080fd5b505afa1580156104c6573d6000803e3d6000fd5b50505050600061050b8a8a8080601f016020809104026020016040519081016040528093929190818152602001838380828437600092019190915250610b5892505050565b90506000805b82602001515181101561063857600083602001518281518110610536576105366119ed565b60200260200101519050600084604001518381518110610558576105586119ed565b60209081029190910181015186516001600160a01b0390811660009081526002845260408082209287168252919093528220549092506105989083611a19565b905080156106225785516001600160a01b0390811660009081526002602090815260408083209387168084529390915290208390558651600196506105de919083610e11565b85516040518281526001600160a01b038086169216907f97e6c3172350795e26977663112f38653689372e771e85bad9fbadb1af0e98b29060200160405180910390a35b505050808061063090611a2c565b915050610511565b50806106865760405162461bcd60e51b815260206004820152600d60248201527f4e6f206e6577207265776172640000000000000000000000000000000000000060448201526064016102dc565b5050505050505050505050565b6102ed33610a98565b600054600160a01b900460ff16156106e95760405162461bcd60e51b815260206004820152601060248201526f14185d5cd8589b194e881c185d5cd95960821b60448201526064016102dc565b336106ff6001600160a01b038416823085610ea6565b826001600160a01b0316816001600160a01b03167f40aa1b9a9157bc37a09a78d5a46e53087b82ee0034ebe896d4d1a52f31b333d48460405161074491815260200190565b60405180910390a3505050565b336107646000546001600160a01b031690565b6001600160a01b0316146107ba5760405162461bcd60e51b815260206004820181905260248201527f4f776e61626c653a2063616c6c6572206973206e6f7420746865206f776e657260448201526064016102dc565b61036181610ee4565b3360009081526001602052604090205460ff166108225760405162461bcd60e51b815260206004820152601460248201527f43616c6c6572206973206e6f742070617573657200000000000000000000000060448201526064016102dc565b6102ed610fa2565b600054600160a01b900460ff166108835760405162461bcd60e51b815260206004820152601460248201527f5061757361626c653a206e6f742070617573656400000000000000000000000060448201526064016102dc565b336108966000546001600160a01b031690565b6001600160a01b0316146108ec5760405162461bcd60e51b815260206004820181905260248201527f4f776e61626c653a2063616c6c6572206973206e6f7420746865206f776e657260448201526064016102dc565b6109006001600160a01b0383163383610e11565b5050565b336109176000546001600160a01b031690565b6001600160a01b03161461096d5760405162461bcd60e51b815260206004820181905260248201527f4f776e61626c653a2063616c6c6572206973206e6f7420746865206f776e657260448201526064016102dc565b6001600160a01b0381166109e95760405162461bcd60e51b815260206004820152602660248201527f4f776e61626c653a206e6577206f776e657220697320746865207a65726f206160448201527f646472657373000000000000000000000000000000000000000000000000000060648201526084016102dc565b6103618161102a565b600054600160a01b900460ff16610a4b5760405162461bcd60e51b815260206004820152601460248201527f5061757361626c653a206e6f742070617573656400000000000000000000000060448201526064016102dc565b6000805460ff60a01b191690557f5db9ee0a495bf2e6ff9c91a7834c1ba4fdd244a5e8aa4e537bd38aeae4b073aa335b6040516001600160a01b03909116815260200160405180910390a1565b6001600160a01b03811660009081526001602052604090205460ff16610b005760405162461bcd60e51b815260206004820152601560248201527f4163636f756e74206973206e6f7420706175736572000000000000000000000060448201526064016102dc565b6001600160a01b038116600081815260016020908152604091829020805460ff1916905590519182527fcd265ebaf09df2871cc7bd4133404a235ba12eff2041bb89d9c714a2621c7c7e91015b60405180910390a150565b610b85604051806060016040528060006001600160a01b0316815260200160608152602001606081525090565b60408051808201909152600080825260208201849052610ba6826003611092565b905080600281518110610bbb57610bbb6119ed565b602002602001015167ffffffffffffffff811115610bdb57610bdb611a45565b604051908082528060200260200182016040528015610c04578160200160208202803683370190505b508360200181905250600081600281518110610c2257610c226119ed565b60200260200101818152505080600381518110610c4157610c416119ed565b602002602001015167ffffffffffffffff811115610c6157610c61611a45565b604051908082528060200260200182016040528015610c8a578160200160208202803683370190505b508360400181905250600081600381518110610ca857610ca86119ed565b6020026020010181815250506000805b60208401515184511015610e0857610ccf8461114c565b909250905081600103610cfd57610ced610ce885611186565b611243565b6001600160a01b03168552610cb8565b81600203610d9157610d11610ce885611186565b856020015184600281518110610d2957610d296119ed565b602002602001015181518110610d4157610d416119ed565b60200260200101906001600160a01b031690816001600160a01b03168152505082600281518110610d7457610d746119ed565b602002602001018051809190610d8990611a2c565b905250610cb8565b81600303610df957610daa610da585611186565b611254565b856040015184600381518110610dc257610dc26119ed565b602002602001015181518110610dda57610dda6119ed565b60200260200101818152505082600381518110610d7457610d746119ed565b610e03848261128b565b610cb8565b50505050919050565b6040516001600160a01b038316602482015260448101829052610ea190849063a9059cbb60e01b906064015b60408051601f198184030181529190526020810180517bffffffffffffffffffffffffffffffffffffffffffffffffffffffff167fffffffff00000000000000000000000000000000000000000000000000000000909316929092179091526112fb565b505050565b6040516001600160a01b0380851660248301528316604482015260648101829052610ede9085906323b872dd60e01b90608401610e3d565b50505050565b6001600160a01b03811660009081526001602052604090205460ff1615610f4d5760405162461bcd60e51b815260206004820152601960248201527f4163636f756e7420697320616c7265616479207061757365720000000000000060448201526064016102dc565b6001600160a01b038116600081815260016020818152604092839020805460ff191690921790915590519182527f6719d08c1888103bea251a4ed56406bd0c3e69723c8a1686e017e7bbe159b6f89101610b4d565b600054600160a01b900460ff1615610fef5760405162461bcd60e51b815260206004820152601060248201526f14185d5cd8589b194e881c185d5cd95960821b60448201526064016102dc565b6000805460ff60a01b1916600160a01b1790557f62e78cea01bee320cd4e420270b5ea74000d11b0c9f74754ebdbfc544b05a258610a7b3390565b600080546001600160a01b038381167fffffffffffffffffffffffff0000000000000000000000000000000000000000831681178455604051919092169283917f8be0079c531659141344cd1fd0a4f28419497f9722a3daafe3b4186f6b6457e09190a35050565b81516060906110a2836001611a5b565b67ffffffffffffffff8111156110ba576110ba611a45565b6040519080825280602002602001820160405280156110e3578160200160208202803683370190505b5091506000805b60208601515186511015611143576111018661114c565b8092508193505050600184838151811061111d5761111d6119ed565b602002602001018181516111319190611a5b565b90525061113e868261128b565b6110ea565b50509092525090565b600080600061115a846113e0565b9050611167600882611a6e565b925080600716600581111561117e5761117e611a90565b915050915091565b60606000611193836113e0565b905060008184600001516111a79190611a5b565b90508360200151518111156111bb57600080fd5b8167ffffffffffffffff8111156111d4576111d4611a45565b6040519080825280601f01601f1916602001820160405280156111fe576020820181803683370190505b50602080860151865192955091818601919083010160005b85811015611238578181015183820152611231602082611a5b565b9050611216565b505050935250919050565b600061124e8261145b565b92915050565b600060208251111561126557600080fd5b602082015190508151602061127a9190611a19565b611285906008611aa6565b1c919050565b600081600581111561129f5761129f611a90565b036112ad57610ea1826113e0565b60028160058111156112c1576112c1611a90565b036100f55760006112d1836113e0565b905080836000018181516112e59190611a5b565b90525060208301515183511115610ea157600080fd5b6000611350826040518060400160405280602081526020017f5361666545524332303a206c6f772d6c6576656c2063616c6c206661696c6564815250856001600160a01b03166114839092919063ffffffff16565b805190915015610ea1578080602001905181019061136e9190611abd565b610ea15760405162461bcd60e51b815260206004820152602a60248201527f5361666545524332303a204552433230206f7065726174696f6e20646964206e60448201527f6f7420737563636565640000000000000000000000000000000000000000000060648201526084016102dc565b602080820151825181019091015160009182805b600a8110156100f55783811a915061140d816007611aa6565b82607f16901b85179450816080166000036114495761142d816001611a5b565b8651879061143c908390611a5b565b9052509395945050505050565b8061145381611a2c565b9150506113f4565b6000815160141461146b57600080fd5b50602001516c01000000000000000000000000900490565b6060611492848460008561149c565b90505b9392505050565b6060824710156115145760405162461bcd60e51b815260206004820152602660248201527f416464726573733a20696e73756666696369656e742062616c616e636520666f60448201527f722063616c6c000000000000000000000000000000000000000000000000000060648201526084016102dc565b6001600160a01b0385163b61156b5760405162461bcd60e51b815260206004820152601d60248201527f416464726573733a2063616c6c20746f206e6f6e2d636f6e747261637400000060448201526064016102dc565b600080866001600160a01b031685876040516115879190611adf565b60006040518083038185875af1925050503d80600081146115c4576040519150601f19603f3d011682016040523d82523d6000602084013e6115c9565b606091505b50915091506115d98282866115e4565b979650505050505050565b606083156115f3575081611495565b8251156116035782518084602001fd5b8160405162461bcd60e51b81526004016102dc9190611afb565b80356001600160a01b038116811461163457600080fd5b919050565b6000806040838503121561164c57600080fd5b6116558361161d565b91506116636020840161161d565b90509250929050565b60006020828403121561167e57600080fd5b6114958261161d565b60008083601f84011261169957600080fd5b50813567ffffffffffffffff8111156116b157600080fd5b6020830191508360208260051b85010111156116cc57600080fd5b9250929050565b6000806000806000806000806080898b0312156116ef57600080fd5b883567ffffffffffffffff8082111561170757600080fd5b818b0191508b601f83011261171b57600080fd5b81358181111561172a57600080fd5b8c602082850101111561173c57600080fd5b60209283019a509850908a0135908082111561175757600080fd5b6117638c838d01611687565b909850965060408b013591508082111561177c57600080fd5b6117888c838d01611687565b909650945060608b01359150808211156117a157600080fd5b506117ae8b828c01611687565b999c989b5096995094979396929594505050565b600080604083850312156117d557600080fd5b6117de8361161d565b946020939093013593505050565b838152818360208301376000910160200190815292915050565b60005b83811015611821578181015183820152602001611809565b50506000910152565b60008151808452611842816020860160208601611806565b601f01601f19169290920160200192915050565b81835281816020850137506000828201602090810191909152601f909101601f19169091010190565b8183526000602080850194508260005b858110156118bb576001600160a01b036118a88361161d565b168752958201959082019060010161188f565b509495945050505050565b81835260007f07ffffffffffffffffffffffffffffffffffffffffffffffffffffffffffffff8311156118f857600080fd5b8260051b80836020870137939093016020019392505050565b608081526000611924608083018a61182a565b602083820381850152818983528183019050818a60051b8401018b60005b8c8110156119b257858303601f190184528135368f9003601e1901811261196857600080fd5b8e01858101903567ffffffffffffffff81111561198457600080fd5b80360382131561199357600080fd5b61199e858284611856565b958701959450505090840190600101611942565b505085810360408701526119c7818a8c61187f565b935050505082810360608401526119df8185876118c6565b9a9950505050505050505050565b634e487b7160e01b600052603260045260246000fd5b634e487b7160e01b600052601160045260246000fd5b8181038181111561124e5761124e611a03565b600060018201611a3e57611a3e611a03565b5060010190565b634e487b7160e01b600052604160045260246000fd5b8082018082111561124e5761124e611a03565b600082611a8b57634e487b7160e01b600052601260045260246000fd5b500490565b634e487b7160e01b600052602160045260246000fd5b808202811582820484141761124e5761124e611a03565b600060208284031215611acf57600080fd5b8151801515811461149557600080fd5b60008251611af1818460208701611806565b9190910192915050565b602081526000611495602083018461182a56fea2646970667358221220057376514278c1c1dbd87d4091990e010e7ebdbcd9e42d580d8eb841f694bb0064736f6c63430008110033",
  "devdoc": {
    "kind": "dev",
    "methods": {
      "claimRewards(bytes,bytes[],address[],uint256[])": {
        "details": "Here we use cumulative reward to make claim process idempotent",
        "params": {
          "_powers": "powers of current signers",
          "_rewardsRequest": "rewards request bytes coded in protobuf",
          "_signers": "sorted list of current signers",
          "_sigs": "list of signatures sorted by signer addresses in ascending order"
        }
      },
      "contributeToRewardPool(address,uint256)": {
        "params": {
          "_amount": "the amount of the token to contribute",
          "_token": "the address of the token to contribute"
        }
      },
      "drainToken(address,uint256)": {
        "details": "emergency use only",
        "params": {
          "_amount": "drained token amount",
          "_token": "the address of the token to drain"
        }
      },
      "owner()": {
        "details": "Returns the address of the current owner."
      },
      "paused()": {
        "details": "Returns true if the contract is paused, and false otherwise."
      },
      "transferOwnership(address)": {
        "details": "Transfers ownership of the contract to a new account (`newOwner`). Can only be called by the current owner."
      }
    },
    "title": "A contract to hold and distribute farming rewards.",
    "version": 1
  },
  "userdoc": {
    "kind": "user",
    "methods": {
      "claimRewards(bytes,bytes[],address[],uint256[])": {
        "notice": "Claim rewards"
      },
      "contributeToRewardPool(address,uint256)": {
        "notice": "Contribute reward tokens to the reward pool"
      },
      "drainToken(address,uint256)": {
        "notice": "Owner drains tokens when the contract is paused"
      }
    },
    "version": 1
  },
  "storageLayout": {
    "storage": [
      {
        "astId": 35716,
        "contract": "contracts/liquidity-bridge/FarmingRewards.sol:FarmingRewards",
        "label": "_owner",
        "offset": 0,
        "slot": "0",
        "type": "t_address"
      },
      {
        "astId": 1261,
        "contract": "contracts/liquidity-bridge/FarmingRewards.sol:FarmingRewards",
        "label": "_paused",
        "offset": 20,
        "slot": "0",
        "type": "t_bool"
      },
      {
        "astId": 35830,
        "contract": "contracts/liquidity-bridge/FarmingRewards.sol:FarmingRewards",
        "label": "pausers",
        "offset": 0,
        "slot": "1",
        "type": "t_mapping(t_address,t_bool)"
      },
      {
        "astId": 15966,
        "contract": "contracts/liquidity-bridge/FarmingRewards.sol:FarmingRewards",
        "label": "claimedRewardAmounts",
        "offset": 0,
        "slot": "2",
        "type": "t_mapping(t_address,t_mapping(t_address,t_uint256))"
      }
    ],
    "types": {
      "t_address": {
        "encoding": "inplace",
        "label": "address",
        "numberOfBytes": "20"
      },
      "t_bool": {
        "encoding": "inplace",
        "label": "bool",
        "numberOfBytes": "1"
      },
      "t_mapping(t_address,t_bool)": {
        "encoding": "mapping",
        "key": "t_address",
        "label": "mapping(address => bool)",
        "numberOfBytes": "32",
        "value": "t_bool"
      },
      "t_mapping(t_address,t_mapping(t_address,t_uint256))": {
        "encoding": "mapping",
        "key": "t_address",
        "label": "mapping(address => mapping(address => uint256))",
        "numberOfBytes": "32",
        "value": "t_mapping(t_address,t_uint256)"
      },
      "t_mapping(t_address,t_uint256)": {
        "encoding": "mapping",
        "key": "t_address",
        "label": "mapping(address => uint256)",
        "numberOfBytes": "32",
        "value": "t_uint256"
      },
      "t_uint256": {
        "encoding": "inplace",
        "label": "uint256",
        "numberOfBytes": "32"
      }
    }
  }
}