{
  "address": "0x41da03e4472d93BBE150F3a552a28Dca8849fe0C",
  "abi": [
    {
      "inputs": [
        {
          "internalType": "contract Staking",
          "name": "_staking",
          "type": "address"
        },
        {
          "internalType": "address",
          "name": "_xqsTokenAddress",
          "type": "address"
        },
        {
          "internalType": "address",
          "name": "_collector",
          "type": "address"
        }
      ],
      "stateMutability": "nonpayable",
      "type": "constructor"
    },
    {
      "anonymous": false,
      "inputs": [
        {
          "indexed": false,
          "internalType": "uint256",
          "name": "proposalId",
          "type": "uint256"
        },
        {
          "indexed": false,
          "internalType": "bool",
          "name": "passed",
          "type": "bool"
        },
        {
          "indexed": false,
          "internalType": "enum DataTypes.ParamName",
          "name": "name",
          "type": "uint8"
        },
        {
          "indexed": false,
          "internalType": "uint256",
          "name": "newValue",
          "type": "uint256"
        }
      ],
      "name": "ConfirmParamProposal",
      "type": "event"
    },
    {
      "anonymous": false,
      "inputs": [
        {
          "indexed": false,
          "internalType": "uint256",
          "name": "proposalId",
          "type": "uint256"
        },
        {
          "indexed": false,
          "internalType": "address",
          "name": "proposer",
          "type": "address"
        },
        {
          "indexed": false,
          "internalType": "uint256",
          "name": "deposit",
          "type": "uint256"
        },
        {
          "indexed": false,
          "internalType": "uint256",
          "name": "voteDeadline",
          "type": "uint256"
        },
        {
          "indexed": false,
          "internalType": "enum DataTypes.ParamName",
          "name": "name",
          "type": "uint8"
        },
        {
          "indexed": false,
          "internalType": "uint256",
          "name": "newValue",
          "type": "uint256"
        }
      ],
      "name": "CreateParamProposal",
      "type": "event"
    },
    {
      "anonymous": false,
      "inputs": [
        {
          "indexed": false,
          "internalType": "uint256",
          "name": "proposalId",
          "type": "uint256"
        },
        {
          "indexed": false,
          "internalType": "address",
          "name": "voter",
          "type": "address"
        },
        {
          "indexed": false,
          "internalType": "enum Govern.VoteOption",
          "name": "vote",
          "type": "uint8"
        }
      ],
      "name": "VoteParam",
      "type": "event"
    },
    {
      "inputs": [],
      "name": "collectForfeiture",
      "outputs": [],
      "stateMutability": "nonpayable",
      "type": "function"
    },
    {
      "inputs": [],
      "name": "collector",
      "outputs": [
        {
          "internalType": "address",
          "name": "",
          "type": "address"
        }
      ],
      "stateMutability": "view",
      "type": "function"
    },
    {
      "inputs": [
        {
          "internalType": "uint256",
          "name": "_proposalId",
          "type": "uint256"
        }
      ],
      "name": "confirmParamProposal",
      "outputs": [],
      "stateMutability": "nonpayable",
      "type": "function"
    },
    {
      "inputs": [
        {
          "internalType": "enum DataTypes.ParamName",
          "name": "_name",
          "type": "uint8"
        },
        {
          "internalType": "uint256",
          "name": "_value",
          "type": "uint256"
        }
      ],
      "name": "createParamProposal",
      "outputs": [],
      "stateMutability": "nonpayable",
      "type": "function"
    },
    {
      "inputs": [],
      "name": "forfeiture",
      "outputs": [
        {
          "internalType": "uint256",
          "name": "",
          "type": "uint256"
        }
      ],
      "stateMutability": "view",
      "type": "function"
    },
    {
      "inputs": [
        {
          "internalType": "uint256",
          "name": "_proposalId",
          "type": "uint256"
        },
        {
          "internalType": "address",
          "name": "_voter",
          "type": "address"
        }
      ],
      "name": "getParamProposalVote",
      "outputs": [
        {
          "internalType": "enum Govern.VoteOption",
          "name": "",
          "type": "uint8"
        }
      ],
      "stateMutability": "view",
      "type": "function"
    },
    {
      "inputs": [],
      "name": "nextParamProposalId",
      "outputs": [
        {
          "internalType": "uint256",
          "name": "",
          "type": "uint256"
        }
      ],
      "stateMutability": "view",
      "type": "function"
    },
    {
      "inputs": [
        {
          "internalType": "uint256",
          "name": "",
          "type": "uint256"
        }
      ],
      "name": "paramProposals",
      "outputs": [
        {
          "internalType": "address",
          "name": "proposer",
          "type": "address"
        },
        {
          "internalType": "uint256",
          "name": "deposit",
          "type": "uint256"
        },
        {
          "internalType": "uint256",
          "name": "voteDeadline",
          "type": "uint256"
        },
        {
          "internalType": "enum DataTypes.ParamName",
          "name": "name",
          "type": "uint8"
        },
        {
          "internalType": "uint256",
          "name": "newValue",
          "type": "uint256"
        },
        {
          "internalType": "enum Govern.ProposalStatus",
          "name": "status",
          "type": "uint8"
        }
      ],
      "stateMutability": "view",
      "type": "function"
    },
    {
      "inputs": [],
      "name": "staking",
      "outputs": [
        {
          "internalType": "contract Staking",
          "name": "",
          "type": "address"
        }
      ],
      "stateMutability": "view",
      "type": "function"
    },
    {
      "inputs": [
        {
          "internalType": "uint256",
          "name": "_proposalId",
          "type": "uint256"
        },
        {
          "internalType": "enum Govern.VoteOption",
          "name": "_vote",
          "type": "uint8"
        }
      ],
      "name": "voteParam",
      "outputs": [],
      "stateMutability": "nonpayable",
      "type": "function"
    },
    {
      "inputs": [],
      "name": "xqsToken",
      "outputs": [
        {
          "internalType": "contract IERC20",
          "name": "",
          "type": "address"
        }
      ],
      "stateMutability": "view",
      "type": "function"
    }
  ],
  "transactionHash": "0x05db014be5f512df01808273499565d31c4a6415dbe1b0519d728e5f4ddf8b16",
  "args": [
    "0x95c37647e3c9a262167A4C00ebe2cb8212B833F3",
    "0x40FA695BD3098356e3C3a5DcEDB967e85a2C478B",
    "0x04557d047e6f2d05f5379E9665c3462965CD0fa4"
  ],
  "numDeployments": 1,
  "solcInputHash": "24a8ade26360662d0ce26222bfbba06d",
  "bytecode": "0x60e06040523480156200001157600080fd5b50604051620015a8380380620015a883398101604081905262000034916200006b565b6001600160a01b0392831660805290821660a0521660c052620000bf565b6001600160a01b03811681146200006857600080fd5b50565b6000806000606084860312156200008157600080fd5b83516200008e8162000052565b6020850151909350620000a18162000052565b6040850151909250620000b48162000052565b809150509250925092565b60805160a05160c05161147a6200012e600039600081816101da0152610610015260008181610214015281816105ed0152818161093e0152610ba30152600081816101040152818161026b01528181610643015281816108c101528181610a180152610add015261147a6000f3fe608060405234801561001057600080fd5b50600436106100c95760003560e01c806382d7b4b811610081578063934a18ec1161005b578063934a18ec146101fc578063e144aba51461020f578063e478ed9d1461023657600080fd5b806382d7b4b8146101c45780638338f0e5146101cc578063913e77ad146101d557600080fd5b80634cf088d9116100b25780634cf088d9146100ff578063581c53c51461013e5780637e5fb8f31461015e57600080fd5b806322da7927146100ce57806325ed6b35146100ea575b600080fd5b6100d760015481565b6040519081526020015b60405180910390f35b6100fd6100f8366004610f90565b610249565b005b6101267f000000000000000000000000000000000000000000000000000000000000000081565b6040516001600160a01b0390911681526020016100e1565b61015161014c366004610fd5565b61055c565b6040516100e19190611024565b6101b261016c366004611032565b6000602081905290815260409020805460018201546002830154600384015460048501546005909501546001600160a01b03909416949293919260ff9182169290911686565b6040516100e19695949392919061105b565b6100fd61058a565b6100d760025481565b6101267f000000000000000000000000000000000000000000000000000000000000000081565b6100fd61020a366004611032565b61063c565b6101267f000000000000000000000000000000000000000000000000000000000000000081565b6100fd6102443660046110ad565b6109dc565b33600360405163a310624f60e01b81526001600160a01b0383811660048301527f0000000000000000000000000000000000000000000000000000000000000000169063a310624f90602401602060405180830381865afa1580156102b2573d6000803e3d6000fd5b505050506040513d601f19601f820116820180604052508101906102d691906110dd565b60038111156102e7576102e7610ffa565b146103395760405162461bcd60e51b815260206004820152601f60248201527f566f746572206973206e6f74206120626f6e6465642076616c696461746f720060448201526064015b60405180910390fd5b60008381526020819052604090206001600582015460ff16600281111561036257610362610ffa565b146103af5760405162461bcd60e51b815260206004820152601760248201527f496e76616c69642070726f706f73616c207374617475730000000000000000006044820152606401610330565b806002015443106104025760405162461bcd60e51b815260206004820152601460248201527f566f746520646561646c696e65207061737365640000000000000000000000006044820152606401610330565b6001600160a01b038216600090815260068201602052604081205460ff16600381111561043157610431610ffa565b1461047e5760405162461bcd60e51b815260206004820152600f60248201527f566f7465722068617320766f74656400000000000000000000000000000000006044820152606401610330565b600083600381111561049257610492610ffa565b036104df5760405162461bcd60e51b815260206004820152600c60248201527f496e76616c696420766f746500000000000000000000000000000000000000006044820152606401610330565b6001600160a01b03821660009081526006820160205260409020805484919060ff1916600183600381111561051657610516610ffa565b02179055507f06c7ef6e19454637e93ee60cc680c61fb2ebabb57e58cf36d94141a5036b3d6584838560405161054e939291906110fa565b60405180910390a150505050565b6000828152602081815260408083206001600160a01b038516845260060190915290205460ff165b92915050565b6000600254116105dc5760405162461bcd60e51b815260206004820152601260248201527f4e6f7468696e6720746f20636f6c6c65637400000000000000000000000000006044820152606401610330565b600254610635906001600160a01b037f000000000000000000000000000000000000000000000000000000000000000016907f000000000000000000000000000000000000000000000000000000000000000090610c2c565b6000600255565b60008060007f00000000000000000000000000000000000000000000000000000000000000006001600160a01b0316634021d4d56040518163ffffffff1660e01b8152600401600060405180830381865afa15801561069f573d6000803e3d6000fd5b505050506040513d6000823e601f3d908101601f191682016040526106c7919081019061118d565b905060005b81518163ffffffff16101561079557600161070a86848463ffffffff16815181106106f9576106f9611263565b60200260200101516000015161055c565b600381111561071b5761071b610ffa565b0361075257818163ffffffff168151811061073857610738611263565b6020026020010151602001518461074f919061128f565b93505b818163ffffffff168151811061076a5761076a611263565b60200260200101516020015183610781919061128f565b92508061078d816112a2565b9150506106cc565b50600060036107a58460026112c5565b6107af91906112dc565b6107ba90600161128f565b60008681526020819052604090209085101591506001600582015460ff1660028111156107e9576107e9610ffa565b146108365760405162461bcd60e51b815260206004820152601760248201527f496e76616c69642070726f706f73616c207374617475730000000000000000006044820152606401610330565b806002015443101561088a5760405162461bcd60e51b815260206004820152601960248201527f566f746520646561646c696e65206e6f742072656163686564000000000000006044820152606401610330565b60058101805460ff19166002179055811561096f57600381015460048083015460405163e909156d60e01b81526001600160a01b037f0000000000000000000000000000000000000000000000000000000000000000169363e909156d936108f89360ff90921692016112fe565b600060405180830381600087803b15801561091257600080fd5b505af1158015610926573d6000803e3d6000fd5b50508254600184015461096a93506001600160a01b037f00000000000000000000000000000000000000000000000000000000000000008116935090911690610c2c565b61098b565b806001015460026000828254610985919061128f565b90915550505b600381015460048201546040517fd0d659ab2c0f954d2f29cf2e13d8ff2e15e147f3424eb205a079c4caa6bfe1a9926109cc928a92879260ff169190611319565b60405180910390a1505050505050565b600180546000818152602081905260409020916109f9919061128f565b600155604051631042b80b60e21b815233906000906001600160a01b037f0000000000000000000000000000000000000000000000000000000000000000169063410ae02c90610a4d908490600401611344565b602060405180830381865afa158015610a6a573d6000803e3d6000fd5b505050506040513d601f19601f82011682018060405250810190610a8e9190611352565b83547fffffffffffffffffffffffff0000000000000000000000000000000000000000166001600160a01b038481169190911785556001808601839055604051631042b80b60e21b81529293507f00000000000000000000000000000000000000000000000000000000000000009091169163410ae02c91610b1291600401611344565b602060405180830381865afa158015610b2f573d6000803e3d6000fd5b505050506040513d601f19601f82011682018060405250810190610b539190611352565b610b5d904361128f565b600284015560038301805486919060ff19166001836008811115610b8357610b83610ffa565b02179055506004830184905560058301805460ff19166001179055610bd37f00000000000000000000000000000000000000000000000000000000000000006001600160a01b0316833084610cc1565b7f4a4d354dbdc4d7b757c1f44b6e074bb6e1afe33f4b9867ce48cfb7004d76f16060018054610c02919061136b565b838386600201548989604051610c1d9695949392919061137e565b60405180910390a15050505050565b6040516001600160a01b038316602482015260448101829052610cbc90849063a9059cbb60e01b906064015b60408051601f198184030181529190526020810180517bffffffffffffffffffffffffffffffffffffffffffffffffffffffff167fffffffff0000000000000000000000000000000000000000000000000000000090931692909217909152610cff565b505050565b6040516001600160a01b0380851660248301528316604482015260648101829052610cf99085906323b872dd60e01b90608401610c58565b50505050565b6000610d54826040518060400160405280602081526020017f5361666545524332303a206c6f772d6c6576656c2063616c6c206661696c6564815250856001600160a01b0316610de49092919063ffffffff16565b805190915015610cbc5780806020019051810190610d7291906113af565b610cbc5760405162461bcd60e51b815260206004820152602a60248201527f5361666545524332303a204552433230206f7065726174696f6e20646964206e60448201527f6f742073756363656564000000000000000000000000000000000000000000006064820152608401610330565b6060610df38484600085610dfd565b90505b9392505050565b606082471015610e755760405162461bcd60e51b815260206004820152602660248201527f416464726573733a20696e73756666696369656e742062616c616e636520666f60448201527f722063616c6c00000000000000000000000000000000000000000000000000006064820152608401610330565b6001600160a01b0385163b610ecc5760405162461bcd60e51b815260206004820152601d60248201527f416464726573733a2063616c6c20746f206e6f6e2d636f6e74726163740000006044820152606401610330565b600080866001600160a01b03168587604051610ee891906113f5565b60006040518083038185875af1925050503d8060008114610f25576040519150601f19603f3d011682016040523d82523d6000602084013e610f2a565b606091505b5091509150610f3a828286610f47565b925050505b949350505050565b60608315610f56575081610df6565b825115610f665782518084602001fd5b8160405162461bcd60e51b81526004016103309190611411565b60048110610f8d57600080fd5b50565b60008060408385031215610fa357600080fd5b823591506020830135610fb581610f80565b809150509250929050565b6001600160a01b0381168114610f8d57600080fd5b60008060408385031215610fe857600080fd5b823591506020830135610fb581610fc0565b634e487b7160e01b600052602160045260246000fd5b6004811061102057611020610ffa565b9052565b602081016105848284611010565b60006020828403121561104457600080fd5b5035919050565b6009811061102057611020610ffa565b6001600160a01b0387168152602081018690526040810185905260c08101611086606083018661104b565b8360808301526003831061109c5761109c610ffa565b8260a0830152979650505050505050565b600080604083850312156110c057600080fd5b8235600981106110cf57600080fd5b946020939093013593505050565b6000602082840312156110ef57600080fd5b8151610df681610f80565b8381526001600160a01b038316602082015260608101610f3f6040830184611010565b634e487b7160e01b600052604160045260246000fd5b6040805190810167ffffffffffffffff811182821017156111565761115661111d565b60405290565b604051601f8201601f1916810167ffffffffffffffff811182821017156111855761118561111d565b604052919050565b600060208083850312156111a057600080fd5b825167ffffffffffffffff808211156111b857600080fd5b818501915085601f8301126111cc57600080fd5b8151818111156111de576111de61111d565b6111ec848260051b0161115c565b818152848101925060069190911b83018401908782111561120c57600080fd5b928401925b81841015611258576040848903121561122a5760008081fd5b611232611133565b845161123d81610fc0565b81528486015186820152835260409093019291840191611211565b979650505050505050565b634e487b7160e01b600052603260045260246000fd5b634e487b7160e01b600052601160045260246000fd5b8082018082111561058457610584611279565b600063ffffffff8083168181036112bb576112bb611279565b6001019392505050565b808202811582820484141761058457610584611279565b6000826112f957634e487b7160e01b600052601260045260246000fd5b500490565b6040810161130c828561104b565b8260208301529392505050565b848152831515602082015260808101611335604083018561104b565b82606083015295945050505050565b60208101610584828461104b565b60006020828403121561136457600080fd5b5051919050565b8181038181111561058457610584611279565b8681526001600160a01b0386166020820152604081018590526060810184905260c0810161109c608083018561104b565b6000602082840312156113c157600080fd5b81518015158114610df657600080fd5b60005b838110156113ec5781810151838201526020016113d4565b50506000910152565b600082516114078184602087016113d1565b9190910192915050565b60208152600082518060208401526114308160408501602087016113d1565b601f01601f1916919091016040019291505056fea26469706673582212209755606c4596bdce9852db543758c8fe09d2f57335bdf9dbd02b2c8cab0e380764736f6c63430008110033",
  "devdoc": {
    "kind": "dev",
    "methods": {
      "confirmParamProposal(uint256)": {
        "params": {
          "_proposalId": "the id of the parameter proposal"
        }
      },
      "createParamProposal(uint8,uint256)": {
        "params": {
          "_name": "the key of this parameter",
          "_value": "the new proposed value of this parameter"
        }
      },
      "getParamProposalVote(uint256,address)": {
        "params": {
          "_proposalId": "the proposal id",
          "_voter": "the voter address"
        },
        "returns": {
          "_0": "the vote type of the given voter on the given parameter proposal"
        }
      },
      "voteParam(uint256,uint8)": {
        "params": {
          "_proposalId": "the id of the parameter proposal",
          "_vote": "the type of vote"
        }
      }
    },
    "title": "Governance module for Staking contract",
    "version": 1
  },
  "userdoc": {
    "kind": "user",
    "methods": {
      "confirmParamProposal(uint256)": {
        "notice": "Confirm a parameter proposal"
      },
      "createParamProposal(uint8,uint256)": {
        "notice": "Create a parameter proposal"
      },
      "getParamProposalVote(uint256,address)": {
        "notice": "Get the vote type of a voter on a parameter proposal"
      },
      "voteParam(uint256,uint8)": {
        "notice": "Vote for a parameter proposal with a specific type of vote"
      }
    },
    "version": 1
  },
  "storageLayout": {
    "storage": [
      {
        "astId": 38429,
        "contract": "contracts/staking/Govern.sol:Govern",
        "label": "paramProposals",
        "offset": 0,
        "slot": "0",
        "type": "t_mapping(t_uint256,t_struct(ParamProposal)38424_storage)"
      },
      {
        "astId": 38431,
        "contract": "contracts/staking/Govern.sol:Govern",
        "label": "nextParamProposalId",
        "offset": 0,
        "slot": "1",
        "type": "t_uint256"
      },
      {
        "astId": 38433,
        "contract": "contracts/staking/Govern.sol:Govern",
        "label": "forfeiture",
        "offset": 0,
        "slot": "2",
        "type": "t_uint256"
      }
    ],
    "types": {
      "t_address": {
        "encoding": "inplace",
        "label": "address",
        "numberOfBytes": "20"
      },
      "t_enum(ParamName)38292": {
        "encoding": "inplace",
        "label": "enum DataTypes.ParamName",
        "numberOfBytes": "1"
      },
      "t_enum(ProposalStatus)38399": {
        "encoding": "inplace",
        "label": "enum Govern.ProposalStatus",
        "numberOfBytes": "1"
      },
      "t_enum(VoteOption)38404": {
        "encoding": "inplace",
        "label": "enum Govern.VoteOption",
        "numberOfBytes": "1"
      },
      "t_mapping(t_address,t_enum(VoteOption)38404)": {
        "encoding": "mapping",
        "key": "t_address",
        "label": "mapping(address => enum Govern.VoteOption)",
        "numberOfBytes": "32",
        "value": "t_enum(VoteOption)38404"
      },
      "t_mapping(t_uint256,t_struct(ParamProposal)38424_storage)": {
        "encoding": "mapping",
        "key": "t_uint256",
        "label": "mapping(uint256 => struct Govern.ParamProposal)",
        "numberOfBytes": "32",
        "value": "t_struct(ParamProposal)38424_storage"
      },
      "t_struct(ParamProposal)38424_storage": {
        "encoding": "inplace",
        "label": "struct Govern.ParamProposal",
        "members": [
          {
            "astId": 38406,
            "contract": "contracts/staking/Govern.sol:Govern",
            "label": "proposer",
            "offset": 0,
            "slot": "0",
            "type": "t_address"
          },
          {
            "astId": 38408,
            "contract": "contracts/staking/Govern.sol:Govern",
            "label": "deposit",
            "offset": 0,
            "slot": "1",
            "type": "t_uint256"
          },
          {
            "astId": 38410,
            "contract": "contracts/staking/Govern.sol:Govern",
            "label": "voteDeadline",
            "offset": 0,
            "slot": "2",
            "type": "t_uint256"
          },
          {
            "astId": 38413,
            "contract": "contracts/staking/Govern.sol:Govern",
            "label": "name",
            "offset": 0,
            "slot": "3",
            "type": "t_enum(ParamName)38292"
          },
          {
            "astId": 38415,
            "contract": "contracts/staking/Govern.sol:Govern",
            "label": "newValue",
            "offset": 0,
            "slot": "4",
            "type": "t_uint256"
          },
          {
            "astId": 38418,
            "contract": "contracts/staking/Govern.sol:Govern",
            "label": "status",
            "offset": 0,
            "slot": "5",
            "type": "t_enum(ProposalStatus)38399"
          },
          {
            "astId": 38423,
            "contract": "contracts/staking/Govern.sol:Govern",
            "label": "votes",
            "offset": 0,
            "slot": "6",
            "type": "t_mapping(t_address,t_enum(VoteOption)38404)"
          }
        ],
        "numberOfBytes": "224"
      },
      "t_uint256": {
        "encoding": "inplace",
        "label": "uint256",
        "numberOfBytes": "32"
      }
    }
  }
}