{
  "address": "0x38f1005C8532b154d4387592b76cEAFF5637accE",
  "abi": [
    {
      "inputs": [
        {
          "internalType": "contract Staking",
          "name": "_staking",
          "type": "address"
        }
      ],
      "stateMutability": "nonpayable",
      "type": "constructor"
    },
    {
      "inputs": [],
      "name": "getBondedValidatorInfos",
      "outputs": [
        {
          "components": [
            {
              "internalType": "address",
              "name": "valAddr",
              "type": "address"
            },
            {
              "internalType": "enum DataTypes.ValidatorStatus",
              "name": "status",
              "type": "uint8"
            },
            {
              "internalType": "address",
              "name": "signer",
              "type": "address"
            },
            {
              "internalType": "uint256",
              "name": "tokens",
              "type": "uint256"
            },
            {
              "internalType": "uint256",
              "name": "shares",
              "type": "uint256"
            },
            {
              "internalType": "uint256",
              "name": "minSelfDelegation",
              "type": "uint256"
            },
            {
              "internalType": "uint64",
              "name": "commissionRate",
              "type": "uint64"
            }
          ],
          "internalType": "struct DataTypes.ValidatorInfo[]",
          "name": "",
          "type": "tuple[]"
        }
      ],
      "stateMutability": "view",
      "type": "function"
    },
    {
      "inputs": [
        {
          "internalType": "address",
          "name": "_delAddr",
          "type": "address"
        }
      ],
      "name": "getDelegatorInfos",
      "outputs": [
        {
          "components": [
            {
              "internalType": "address",
              "name": "valAddr",
              "type": "address"
            },
            {
              "internalType": "uint256",
              "name": "tokens",
              "type": "uint256"
            },
            {
              "internalType": "uint256",
              "name": "shares",
              "type": "uint256"
            },
            {
              "components": [
                {
                  "internalType": "uint256",
                  "name": "shares",
                  "type": "uint256"
                },
                {
                  "internalType": "uint256",
                  "name": "creationBlock",
                  "type": "uint256"
                }
              ],
              "internalType": "struct DataTypes.Undelegation[]",
              "name": "undelegations",
              "type": "tuple[]"
            },
            {
              "internalType": "uint256",
              "name": "undelegationTokens",
              "type": "uint256"
            },
            {
              "internalType": "uint256",
              "name": "withdrawableUndelegationTokens",
              "type": "uint256"
            }
          ],
          "internalType": "struct DataTypes.DelegatorInfo[]",
          "name": "",
          "type": "tuple[]"
        }
      ],
      "stateMutability": "view",
      "type": "function"
    },
    {
      "inputs": [
        {
          "internalType": "address",
          "name": "_delAddr",
          "type": "address"
        }
      ],
      "name": "getDelegatorTokens",
      "outputs": [
        {
          "internalType": "uint256",
          "name": "",
          "type": "uint256"
        },
        {
          "internalType": "uint256",
          "name": "",
          "type": "uint256"
        }
      ],
      "stateMutability": "view",
      "type": "function"
    },
    {
      "inputs": [],
      "name": "getMinValidatorTokens",
      "outputs": [
        {
          "internalType": "uint256",
          "name": "",
          "type": "uint256"
        }
      ],
      "stateMutability": "view",
      "type": "function"
    },
    {
      "inputs": [
        {
          "internalType": "address",
          "name": "_valAddr",
          "type": "address"
        }
      ],
      "name": "getValidatorInfo",
      "outputs": [
        {
          "components": [
            {
              "internalType": "address",
              "name": "valAddr",
              "type": "address"
            },
            {
              "internalType": "enum DataTypes.ValidatorStatus",
              "name": "status",
              "type": "uint8"
            },
            {
              "internalType": "address",
              "name": "signer",
              "type": "address"
            },
            {
              "internalType": "uint256",
              "name": "tokens",
              "type": "uint256"
            },
            {
              "internalType": "uint256",
              "name": "shares",
              "type": "uint256"
            },
            {
              "internalType": "uint256",
              "name": "minSelfDelegation",
              "type": "uint256"
            },
            {
              "internalType": "uint64",
              "name": "commissionRate",
              "type": "uint64"
            }
          ],
          "internalType": "struct DataTypes.ValidatorInfo",
          "name": "",
          "type": "tuple"
        }
      ],
      "stateMutability": "view",
      "type": "function"
    },
    {
      "inputs": [],
      "name": "getValidatorInfos",
      "outputs": [
        {
          "components": [
            {
              "internalType": "address",
              "name": "valAddr",
              "type": "address"
            },
            {
              "internalType": "enum DataTypes.ValidatorStatus",
              "name": "status",
              "type": "uint8"
            },
            {
              "internalType": "address",
              "name": "signer",
              "type": "address"
            },
            {
              "internalType": "uint256",
              "name": "tokens",
              "type": "uint256"
            },
            {
              "internalType": "uint256",
              "name": "shares",
              "type": "uint256"
            },
            {
              "internalType": "uint256",
              "name": "minSelfDelegation",
              "type": "uint256"
            },
            {
              "internalType": "uint64",
              "name": "commissionRate",
              "type": "uint64"
            }
          ],
          "internalType": "struct DataTypes.ValidatorInfo[]",
          "name": "",
          "type": "tuple[]"
        }
      ],
      "stateMutability": "view",
      "type": "function"
    },
    {
      "inputs": [
        {
          "internalType": "address",
          "name": "_valAddr",
          "type": "address"
        }
      ],
      "name": "shouldBondValidator",
      "outputs": [
        {
          "internalType": "bool",
          "name": "",
          "type": "bool"
        }
      ],
      "stateMutability": "view",
      "type": "function"
    },
    {
      "inputs": [],
      "name": "staking",
      "outputs": [
        {
          "internalType": "contract Staking",
          "name": "",
          "type": "address"
        }
      ],
      "stateMutability": "view",
      "type": "function"
    }
  ],
  "transactionHash": "0x628027b28aa07a0cf3e179c76c7cafddd63c93101d7a19039026ad3fadc5f2e9",
  "args": [
    "0x95c37647e3c9a262167A4C00ebe2cb8212B833F3"
  ],
  "numDeployments": 1,
  "solcInputHash": "24a8ade26360662d0ce26222bfbba06d",
  "bytecode": "0x60a060405234801561001057600080fd5b506040516116f03803806116f083398101604081905261002f91610040565b6001600160a01b0316608052610070565b60006020828403121561005257600080fd5b81516001600160a01b038116811461006957600080fd5b9392505050565b6080516116046100ec6000396000818160bb01528181610199015281816102dc01528181610379015281816106060152818161073d0152818161085301528181610941015281816109db01528181610a8801528181610c6101528181610d9801528181610e2d01528181610f3b0152610fd201526116046000f3fe608060405234801561001057600080fd5b50600436106100885760003560e01c80638dc2336d1161005b5780638dc2336d1461012a578063c6fc1ed614610140578063d87ffe9114610168578063e9fe6b0b1461017057600080fd5b8063313019bb1461008d5780634cf088d9146100b657806366ab5d28146100f55780638a11d7c91461010a575b600080fd5b6100a061009b36600461108c565b610193565b6040516100ad91906110b0565b60405180910390f35b6100dd7f000000000000000000000000000000000000000000000000000000000000000081565b6040516001600160a01b0390911681526020016100ad565b6100fd610600565b6040516100ad9190611208565b61011d61011836600461108c565b6107ee565b6040516100ad919061124a565b61013261093c565b6040519081526020016100ad565b61015361014e36600461108c565b610bb6565b604080519283526020830191909152016100ad565b6100fd610c5b565b61018361017e36600461108c565b610e05565b60405190151581526020016100ad565b606060007f00000000000000000000000000000000000000000000000000000000000000006001600160a01b0316631cfe4f0b6040518163ffffffff1660e01b8152600401602060405180830381865afa1580156101f5573d6000803e3d6000fd5b505050506040513d601f19601f82011682018060405250810190610219919061125e565b905060008167ffffffffffffffff81111561023657610236611277565b6040519080825280602002602001820160405280156102a957816020015b6102966040518060c0016040528060006001600160a01b0316815260200160008152602001600081526020016060815260200160008152602001600081525090565b8152602001906001900390816102545790505b5090506000805b838163ffffffff16101561048a576040516324aec90f60e21b815263ffffffff821660048201526000907f00000000000000000000000000000000000000000000000000000000000000006001600160a01b0316906392bb243c90602401602060405180830381865afa15801561032b573d6000803e3d6000fd5b505050506040513d601f19601f8201168201806040525081019061034f919061128d565b604051631dd9dfdf60e31b81526001600160a01b03808316600483015289811660248301529192507f00000000000000000000000000000000000000000000000000000000000000009091169063eecefef890604401600060405180830381865afa1580156103c2573d6000803e3d6000fd5b505050506040513d6000823e601f3d908101601f191682016040526103ea9190810190611327565b848363ffffffff168151811061040257610402611458565b6020026020010181905250838263ffffffff168151811061042557610425611458565b60200260200101516040015160001415806104645750838263ffffffff168151811061045357610453611458565b602002602001015160800151600014155b15610477578261047381611484565b9350505b508061048281611484565b9150506102b0565b5060008163ffffffff1667ffffffffffffffff8111156104ac576104ac611277565b60405190808252806020026020018201604052801561051f57816020015b61050c6040518060c0016040528060006001600160a01b0316815260200160008152602001600081526020016060815260200160008152602001600081525090565b8152602001906001900390816104ca5790505b5090506000805b858163ffffffff1610156105f457848163ffffffff168151811061054c5761054c611458565b602002602001015160400151600014158061058b5750848163ffffffff168151811061057a5761057a611458565b602002602001015160800151600014155b156105e257848163ffffffff16815181106105a8576105a8611458565b6020026020010151838363ffffffff16815181106105c8576105c8611458565b602002602001018190525081806105de90611484565b9250505b806105ec81611484565b915050610526565b50909695505050505050565b606060007f00000000000000000000000000000000000000000000000000000000000000006001600160a01b0316631cfe4f0b6040518163ffffffff1660e01b8152600401602060405180830381865afa158015610662573d6000803e3d6000fd5b505050506040513d601f19601f82011682018060405250810190610686919061125e565b905060008167ffffffffffffffff8111156106a3576106a3611277565b60405190808252806020026020018201604052801561070a57816020015b6040805160e08101825260008082526020808301829052928201819052606082018190526080820181905260a0820181905260c082015282526000199092019101816106c15790505b50905060005b828163ffffffff1610156107e7576040516324aec90f60e21b815263ffffffff821660048201526107b1907f00000000000000000000000000000000000000000000000000000000000000006001600160a01b0316906392bb243c906024015b602060405180830381865afa15801561078d573d6000803e3d6000fd5b505050506040513d601f19601f82011682018060405250810190610118919061128d565b828263ffffffff16815181106107c9576107c9611458565b602002602001018190525080806107df90611484565b915050610710565b5092915050565b6040805160e081018252600080825260208201819052918101829052606081018290526080810182905260a0810182905260c0810191909152604051631f4a58fb60e31b81526001600160a01b038381166004830152600091829182918291829182917f0000000000000000000000000000000000000000000000000000000000000000169063fa52c7d89060240161014060405180830381865afa15801561089b573d6000803e3d6000fd5b505050506040513d601f19601f820116820180604052508101906108bf91906114c4565b995050509750505095509550955095506040518060e00160405280896001600160a01b031681526020018760038111156108fb576108fb611185565b8152602001866001600160a01b031681526020018581526020018481526020018381526020018267ffffffffffffffff168152509650505050505050919050565b6000807f00000000000000000000000000000000000000000000000000000000000000006001600160a01b03166389f9aab56040518163ffffffff1660e01b8152600401602060405180830381865afa15801561099d573d6000803e3d6000fd5b505050506040513d601f19601f820116820180604052508101906109c1919061125e565b60405163eb505dd560e01b81529091506001600160a01b037f0000000000000000000000000000000000000000000000000000000000000000169063eb505dd590610a1190600390600401611566565b602060405180830381865afa158015610a2e573d6000803e3d6000fd5b505050506040513d601f19601f82011682018060405250810190610a52919061125e565b811015610a6157600091505090565b60001960005b828110156107e75760405163acc62ccf60e01b8152600481018290526000907f00000000000000000000000000000000000000000000000000000000000000006001600160a01b03169063c8f9f98490829063acc62ccf90602401602060405180830381865afa158015610adf573d6000803e3d6000fd5b505050506040513d601f19601f82011682018060405250810190610b03919061128d565b6040517fffffffff0000000000000000000000000000000000000000000000000000000060e084901b1681526001600160a01b039091166004820152602401602060405180830381865afa158015610b5f573d6000803e3d6000fd5b505050506040513d601f19601f82011682018060405250810190610b83919061125e565b905082811015610ba35780925082600003610ba357600094505050505090565b5080610bae81611580565b915050610a67565b6000806000610bc484610193565b905060008060005b83518163ffffffff161015610c4f57838163ffffffff1681518110610bf357610bf3611458565b60200260200101516020015183610c0a9190611599565b9250838163ffffffff1681518110610c2457610c24611458565b60200260200101516080015182610c3b9190611599565b915080610c4781611484565b915050610bcc565b50909590945092505050565b606060007f00000000000000000000000000000000000000000000000000000000000000006001600160a01b03166389f9aab56040518163ffffffff1660e01b8152600401602060405180830381865afa158015610cbd573d6000803e3d6000fd5b505050506040513d601f19601f82011682018060405250810190610ce1919061125e565b905060008167ffffffffffffffff811115610cfe57610cfe611277565b604051908082528060200260200182016040528015610d6557816020015b6040805160e08101825260008082526020808301829052928201819052606082018190526080820181905260a0820181905260c08201528252600019909201910181610d1c5790505b50905060005b828163ffffffff1610156107e75760405163acc62ccf60e01b815263ffffffff82166004820152610dcf907f00000000000000000000000000000000000000000000000000000000000000006001600160a01b03169063acc62ccf90602401610770565b828263ffffffff1681518110610de757610de7611458565b60200260200101819052508080610dfd90611484565b915050610d6b565b604051631f4a58fb60e31b81526001600160a01b0382811660048301526000918291829182917f0000000000000000000000000000000000000000000000000000000000000000169063fa52c7d89060240161014060405180830381865afa158015610e75573d6000803e3d6000fd5b505050506040513d601f19601f82011682018060405250810190610e9991906114c4565b5050975050505050935050925060006003811115610eb957610eb9611185565b836003811115610ecb57610ecb611185565b1480610ee857506003836003811115610ee657610ee6611185565b145b15610ef857506000949350505050565b8067ffffffffffffffff16431015610f1557506000949350505050565b6040516347abfdbf60e01b81526001600160a01b038681166004830152600160248301527f000000000000000000000000000000000000000000000000000000000000000016906347abfdbf90604401602060405180830381865afa158015610f82573d6000803e3d6000fd5b505050506040513d601f19601f82011682018060405250810190610fa691906115ac565b610fb557506000949350505050565b610fbd61093c565b8211610fce57506000949350505050565b60007f00000000000000000000000000000000000000000000000000000000000000006001600160a01b03166383cfb3186040518163ffffffff1660e01b8152600401602060405180830381865afa15801561102e573d6000803e3d6000fd5b505050506040513d601f19601f82011682018060405250810190611052919061125e565b9050804310156110685750600095945050505050565b50600195945050505050565b6001600160a01b038116811461108957600080fd5b50565b60006020828403121561109e57600080fd5b81356110a981611074565b9392505050565b60006020808301818452808551808352604092508286019150828160051b8701018488016000805b8481101561117657898403603f19018652825180516001600160a01b031685528881015189860152878101518886015260608082015160c0918701829052805191870182905260e0870191908b0190855b8181101561114e578251805185528d01518d850152928b0192918c0191600101611129565b5050506080828101519087015260a091820151919095015294870194918701916001016110d8565b50919998505050505050505050565b634e487b7160e01b600052602160045260246000fd5b6001600160a01b038082511683526020820151600481106111be576111be611185565b8060208501525080604083015116604084015250606081015160608301526080810151608083015260a081015160a083015267ffffffffffffffff60c08201511660c08301525050565b6020808252825182820181905260009190848201906040850190845b818110156105f45761123783855161119b565b9284019260e09290920191600101611224565b60e08101611258828461119b565b92915050565b60006020828403121561127057600080fd5b5051919050565b634e487b7160e01b600052604160045260246000fd5b60006020828403121561129f57600080fd5b81516110a981611074565b60405160c0810167ffffffffffffffff811182821017156112cd576112cd611277565b60405290565b6040805190810167ffffffffffffffff811182821017156112cd576112cd611277565b604051601f8201601f1916810167ffffffffffffffff8111828210171561131f5761131f611277565b604052919050565b6000602080838503121561133a57600080fd5b825167ffffffffffffffff8082111561135257600080fd5b9084019060c0828703121561136657600080fd5b61136e6112aa565b825161137981611074565b815282840151848201526040808401518183015260608401518381111561139f57600080fd5b8401601f810189136113b057600080fd5b8051848111156113c2576113c2611277565b6113d0878260051b016112f6565b818152878101955060069190911b82018701908a8211156113f057600080fd5b918701915b818310156114305783838c03121561140d5760008081fd5b6114156112d3565b835181528884015189820152865294870194918301916113f5565b60608501525050506080838101519082015260a0928301519281019290925250949350505050565b634e487b7160e01b600052603260045260246000fd5b634e487b7160e01b600052601160045260246000fd5b600063ffffffff80831681810361149d5761149d61146e565b6001019392505050565b805167ffffffffffffffff811681146114bf57600080fd5b919050565b6000806000806000806000806000806101408b8d0312156114e457600080fd5b8a51600481106114f357600080fd5b60208c0151909a5061150481611074565b8099505060408b0151975060608b0151965060808b0151955060a08b0151945060c08b0151935061153760e08c016114a7565b92506115466101008c016114a7565b91506115556101208c016114a7565b90509295989b9194979a5092959850565b602081016009831061157a5761157a611185565b91905290565b6000600182016115925761159261146e565b5060010190565b808201808211156112585761125861146e565b6000602082840312156115be57600080fd5b815180151581146110a957600080fdfea2646970667358221220ed34cdd9dd197b4c334635eb87cc6be1acb3f5a8c4db48cad99149e59ebe503d64736f6c63430008110033",
  "devdoc": {
    "kind": "dev",
    "methods": {
      "getMinValidatorTokens()": {
        "returns": {
          "_0": "the minimum staking pool of all bonded validators"
        }
      }
    },
    "title": "Viewer of the staking contract",
    "version": 1
  },
  "userdoc": {
    "kind": "user",
    "methods": {
      "getMinValidatorTokens()": {
        "notice": "Get the minimum staking pool of all bonded validators"
      }
    },
    "notice": "Using a separate viewer contract to reduce staking contract size",
    "version": 1
  },
  "storageLayout": {
    "storage": [],
    "types": null
  }
}